{"contracts/Verifier.sol":{"Verifier":{"abi":[{"inputs":[{"components":[{"components":[{"internalType":"uint256","name":"X","type":"uint256"},{"internalType":"uint256","name":"Y","type":"uint256"}],"internalType":"struct Pairing.G1Point","name":"a","type":"tuple"},{"components":[{"internalType":"uint256[2]","name":"X","type":"uint256[2]"},{"internalType":"uint256[2]","name":"Y","type":"uint256[2]"}],"internalType":"struct Pairing.G2Point","name":"b","type":"tuple"},{"components":[{"internalType":"uint256","name":"X","type":"uint256"},{"internalType":"uint256","name":"Y","type":"uint256"}],"internalType":"struct Pairing.G1Point","name":"c","type":"tuple"}],"internalType":"struct Verifier.Proof","name":"proof","type":"tuple"},{"internalType":"uint256[3]","name":"input","type":"uint256[3]"}],"name":"verifyTx","outputs":[{"internalType":"bool","name":"r","type":"bool"}],"stateMutability":"view","type":"function"}],"evm":{"bytecode":{"linkReferences":{},"object":"6080604052348015600f57600080fd5b506115448061001f6000396000f3fe608060405234801561001057600080fd5b506004361061002b5760003560e01c80630f9c5d4914610030575b600080fd5b61004a6004803603810190610045919061132e565b610060565b604051610057919061138b565b60405180910390f35b600080600367ffffffffffffffff81111561007e5761007d61100c565b5b6040519080825280602002602001820160405280156100ac5781602001602082028036833780820191505090505b50905060005b60038110156100ff578381600381106100ce576100cd6113a6565b5b60200201518282815181106100e6576100e56113a6565b5b60200260200101818152505080806001019150506100b2565b50600061010c8286610127565b0361011b576001915050610121565b60009150505b92915050565b6000807f30644e72e131a029b85045b68181585d2833e84879b9709143e1f593f0000001905060006101576102b8565b90508060800151516001865161016d9190611404565b1461017757600080fd5b60006040518060400160405280600081526020016000815250905060005b865181101561022a57838782815181106101b2576101b16113a6565b5b6020026020010151106101c457600080fd5b61021b8261021685608001516001856101dd9190611404565b815181106101ee576101ed6113a6565b5b60200260200101518a8581518110610209576102086113a6565b5b60200260200101516107ac565b61084e565b91508080600101915050610195565b50610254818360800151600081518110610247576102466113a6565b5b602002602001015161084e565b905061029a8560000151866020015161026c84610916565b856040015161027e8a60400151610916565b87606001516102908960000151610916565b89602001516109bb565b6102aa57600193505050506102b2565b600093505050505b92915050565b6102c0610ed8565b60405180604001604052807f14d63971760d93b51c5efaf52c392f1e867d9c49bcc6100e5d7d9102225d16e281526020017f17a4ec07359d90b6e4e01587018c6957f613421b5e99cd5983b49d9b7f72b9dd8152508160000181905250604051806040016040528060405180604001604052807f09bc71c1283fe538e73ec5fd2eed7f746612d4257b9b05fc0e587ade61afda7b81526020017f1ca738b647a9b247d4cd64d95105a5279a20604200708872abf3685a652f8db5815250815260200160405180604001604052807f0c720b43eaec063343baf982a206a3eadd7a1cd63c60b49c13540b73e3e2995881526020017f1cac92fc27f1a7b8841b8a0701efc362ce268a3373dfadd21f4f614c7412898d8152508152508160200181905250604051806040016040528060405180604001604052807f117683402ea4b06afb91911abe23d7686b997ee35fce0f4e2d4f0d1a66989b2281526020017f0228611efca60de7ce7db17837fe35ed8d90a7b31c123c813b1b766bffcdf0f5815250815260200160405180604001604052807f15aff3b564422cabc1b7cfb378ada40dd0e0bdea535fba9459ee04f29b5c907681526020017f0821cb4e50373e85c9f33104a30b7b7b3bbcb43c1ada404024720032101fcb678152508152508160400181905250604051806040016040528060405180604001604052807f1893828524a5fd0c6c94fe46d817288dc786020deed682260d659a54d8e041ce81526020017f234c113582b4b397c1d1457387874f4b6a8b0931bf05adfee5cdedb9ce6df6e1815250815260200160405180604001604052807f2c095f63371fbc3ed3f0e288eb6a1ec66d1a7611a57cdf09a4d74443c3d063bc81526020017f19e872d03b2806d9a0a5bff7aab7b8ddd27fae36dc23038a016f6d867e1f8ce68152508152508160600181905250600467ffffffffffffffff8111156105875761058661100c565b5b6040519080825280602002602001820160405280156105c057816020015b6105ad610f1f565b8152602001906001900390816105a55790505b50816080018190525060405180604001604052807f0c632b2914205dd94dd4da4101f372a2bab0970c2dcce9946886d2389340217081526020017f2715df20a3973477a438f4058cc95c388ec5c7f3fdad26b70e7acf25eb8273cd8152508160800151600081518110610636576106356113a6565b5b602002602001018190525060405180604001604052807f25644199ebf5b0dab6b71fbe182e0af0b83ea0dc866f5e58d461a094834eb3c681526020017f2c771a1f839718db31b144d9a1257a8a7080038ed9bf46f3f81b45849f13f2f281525081608001516001815181106106ae576106ad6113a6565b5b602002602001018190525060405180604001604052807f2a6afec25f17dc33c2bf834218a836fb3f83ffd9f14b8273da253dddc427d07681526020017f2961ed6482b2449e873f485d3d2cbc565fbab17a68649ece763b0367d6b0fc4a8152508160800151600281518110610726576107256113a6565b5b602002602001018190525060405180604001604052807f2f2e5b7b293ec0eb43daa0d2f0f837c5f1ed538d5bab9dc8a202e7f0885d261e81526020017f1c178241a21ebc6b16aff6951975dafcc56f9f2f898c863d62206e61c1578dc6815250816080015160038151811061079e5761079d6113a6565b5b602002602001018190525090565b6107b4610f1f565b6107bc610f39565b8360000151816000600381106107d5576107d46113a6565b5b6020020181815250508360200151816001600381106107f7576107f66113a6565b5b6020020181815250508281600260038110610815576108146113a6565b5b602002018181525050600060608360808460076107d05a03fa9050806000810361083b57fe5b508061084657600080fd5b505092915050565b610856610f1f565b61085e610f5b565b836000015181600060048110610877576108766113a6565b5b602002018181525050836020015181600160048110610899576108986113a6565b5b6020020181815250508260000151816002600481106108bb576108ba6113a6565b5b6020020181815250508260200151816003600481106108dd576108dc6113a6565b5b602002018181525050600060608360c08460066107d05a03fa9050806000810361090357fe5b508061090e57600080fd5b505092915050565b61091e610f1f565b60007f30644e72e131a029b85045b68181585d97816a916871ca8d3c208c16d87cfd4790506000836000015114801561095b575060008360200151145b1561097f5760405180604001604052806000815260200160008152509150506109b6565b6040518060400160405280846000015181526020018285602001516109a49190611467565b836109af9190611498565b8152509150505b919050565b600080600467ffffffffffffffff8111156109d9576109d861100c565b5b604051908082528060200260200182016040528015610a1257816020015b6109ff610f1f565b8152602001906001900390816109f75790505b5090506000600467ffffffffffffffff811115610a3257610a3161100c565b5b604051908082528060200260200182016040528015610a6b57816020015b610a58610f7d565b815260200190600190039081610a505790505b5090508a82600081518110610a8357610a826113a6565b5b60200260200101819052508882600181518110610aa357610aa26113a6565b5b60200260200101819052508682600281518110610ac357610ac26113a6565b5b60200260200101819052508482600381518110610ae357610ae26113a6565b5b60200260200101819052508981600081518110610b0357610b026113a6565b5b60200260200101819052508781600181518110610b2357610b226113a6565b5b60200260200101819052508581600281518110610b4357610b426113a6565b5b60200260200101819052508381600381518110610b6357610b626113a6565b5b6020026020010181905250610b788282610b88565b9250505098975050505050505050565b60008151835114610b9857600080fd5b6000835190506000600682610bad91906114cc565b905060008167ffffffffffffffff811115610bcb57610bca61100c565b5b604051908082528060200260200182016040528015610bf95781602001602082028036833780820191505090505b50905060005b83811015610e7857868181518110610c1a57610c196113a6565b5b602002602001015160000151826000600684610c3691906114cc565b610c409190611404565b81518110610c5157610c506113a6565b5b602002602001018181525050868181518110610c7057610c6f6113a6565b5b602002602001015160200151826001600684610c8c91906114cc565b610c969190611404565b81518110610ca757610ca66113a6565b5b602002602001018181525050858181518110610cc657610cc56113a6565b5b602002602001015160000151600160028110610ce557610ce46113a6565b5b6020020151826002600684610cfa91906114cc565b610d049190611404565b81518110610d1557610d146113a6565b5b602002602001018181525050858181518110610d3457610d336113a6565b5b602002602001015160000151600060028110610d5357610d526113a6565b5b6020020151826003600684610d6891906114cc565b610d729190611404565b81518110610d8357610d826113a6565b5b602002602001018181525050858181518110610da257610da16113a6565b5b602002602001015160200151600160028110610dc157610dc06113a6565b5b6020020151826004600684610dd691906114cc565b610de09190611404565b81518110610df157610df06113a6565b5b602002602001018181525050858181518110610e1057610e0f6113a6565b5b602002602001015160200151600060028110610e2f57610e2e6113a6565b5b6020020151826005600684610e4491906114cc565b610e4e9190611404565b81518110610e5f57610e5e6113a6565b5b6020026020010181815250508080600101915050610bff565b50610e81610fa3565b6000602082602086026020860160086107d05a03fa90508060008103610ea357fe5b5080610eae57600080fd5b600082600060018110610ec457610ec36113a6565b5b602002015114159550505050505092915050565b6040518060a00160405280610eeb610f1f565b8152602001610ef8610f7d565b8152602001610f05610f7d565b8152602001610f12610f7d565b8152602001606081525090565b604051806040016040528060008152602001600081525090565b6040518060600160405280600390602082028036833780820191505090505090565b6040518060800160405280600490602082028036833780820191505090505090565b6040518060400160405280610f90610fc5565b8152602001610f9d610fc5565b81525090565b6040518060200160405280600190602082028036833780820191505090505090565b6040518060400160405280600290602082028036833780820191505090505090565b6000604051905090565b600080fd5b600080fd5b6000601f19601f8301169050919050565b7f4e487b7100000000000000000000000000000000000000000000000000000000600052604160045260246000fd5b61104482610ffb565b810181811067ffffffffffffffff821117156110635761106261100c565b5b80604052505050565b6000611076610fe7565b9050611082828261103b565b919050565b6000819050919050565b61109a81611087565b81146110a557600080fd5b50565b6000813590506110b781611091565b92915050565b6000604082840312156110d3576110d2610ff6565b5b6110dd604061106c565b905060006110ed848285016110a8565b6000830152506020611101848285016110a8565b60208301525092915050565b600080fd5b600067ffffffffffffffff82111561112d5761112c61100c565b5b602082029050919050565b600080fd5b600061115061114b84611112565b61106c565b9050806020840283018581111561116a57611169611138565b5b835b81811015611193578061117f88826110a8565b84526020840193505060208101905061116c565b5050509392505050565b600082601f8301126111b2576111b161110d565b5b60026111bf84828561113d565b91505092915050565b6000608082840312156111de576111dd610ff6565b5b6111e8604061106c565b905060006111f88482850161119d565b600083015250604061120c8482850161119d565b60208301525092915050565b6000610100828403121561122f5761122e610ff6565b5b611239606061106c565b90506000611249848285016110bd565b600083015250604061125d848285016111c8565b60208301525060c0611271848285016110bd565b60408301525092915050565b600067ffffffffffffffff8211156112985761129761100c565b5b602082029050919050565b60006112b66112b18461127d565b61106c565b905080602084028301858111156112d0576112cf611138565b5b835b818110156112f957806112e588826110a8565b8452602084019350506020810190506112d2565b5050509392505050565b600082601f8301126113185761131761110d565b5b60036113258482856112a3565b91505092915050565b600080610160838503121561134657611345610ff1565b5b600061135485828601611218565b92505061010061136685828601611303565b9150509250929050565b60008115159050919050565b61138581611370565b82525050565b60006020820190506113a0600083018461137c565b92915050565b7f4e487b7100000000000000000000000000000000000000000000000000000000600052603260045260246000fd5b7f4e487b7100000000000000000000000000000000000000000000000000000000600052601160045260246000fd5b600061140f82611087565b915061141a83611087565b9250828201905080821115611432576114316113d5565b5b92915050565b7f4e487b7100000000000000000000000000000000000000000000000000000000600052601260045260246000fd5b600061147282611087565b915061147d83611087565b92508261148d5761148c611438565b5b828206905092915050565b60006114a382611087565b91506114ae83611087565b92508282039050818111156114c6576114c56113d5565b5b92915050565b60006114d782611087565b91506114e283611087565b92508282026114f081611087565b91508282048414831517611507576115066113d5565b5b509291505056fea264697066735822122011b3550218fad59b852bd49ea34d85d8bcdefc2de181b2eca6cd68342d5ec1d564736f6c634300081c0033","opcodes":"PUSH1 0x80 PUSH1 0x40 MSTORE CALLVALUE DUP1 ISZERO PUSH1 0xF JUMPI PUSH1 0x0 DUP1 REVERT JUMPDEST POP PUSH2 0x1544 DUP1 PUSH2 0x1F PUSH1 0x0 CODECOPY PUSH1 0x0 RETURN INVALID PUSH1 0x80 PUSH1 0x40 MSTORE CALLVALUE DUP1 ISZERO PUSH2 0x10 JUMPI PUSH1 0x0 DUP1 REVERT JUMPDEST POP PUSH1 0x4 CALLDATASIZE LT PUSH2 0x2B JUMPI PUSH1 0x0 CALLDATALOAD PUSH1 0xE0 SHR DUP1 PUSH4 0xF9C5D49 EQ PUSH2 0x30 JUMPI JUMPDEST PUSH1 0x0 DUP1 REVERT JUMPDEST PUSH2 0x4A PUSH1 0x4 DUP1 CALLDATASIZE SUB DUP2 ADD SWAP1 PUSH2 0x45 SWAP2 SWAP1 PUSH2 0x132E JUMP JUMPDEST PUSH2 0x60 JUMP JUMPDEST PUSH1 0x40 MLOAD PUSH2 0x57 SWAP2 SWAP1 PUSH2 0x138B JUMP JUMPDEST PUSH1 0x40 MLOAD DUP1 SWAP2 SUB SWAP1 RETURN JUMPDEST PUSH1 0x0 DUP1 PUSH1 0x3 PUSH8 0xFFFFFFFFFFFFFFFF DUP2 GT ISZERO PUSH2 0x7E JUMPI PUSH2 0x7D PUSH2 0x100C JUMP JUMPDEST JUMPDEST PUSH1 0x40 MLOAD SWAP1 DUP1 DUP3 MSTORE DUP1 PUSH1 0x20 MUL PUSH1 0x20 ADD DUP3 ADD PUSH1 0x40 MSTORE DUP1 ISZERO PUSH2 0xAC JUMPI DUP2 PUSH1 0x20 ADD PUSH1 0x20 DUP3 MUL DUP1 CALLDATASIZE DUP4 CALLDATACOPY DUP1 DUP3 ADD SWAP2 POP POP SWAP1 POP JUMPDEST POP SWAP1 POP PUSH1 0x0 JUMPDEST PUSH1 0x3 DUP2 LT ISZERO PUSH2 0xFF JUMPI DUP4 DUP2 PUSH1 0x3 DUP2 LT PUSH2 0xCE JUMPI PUSH2 0xCD PUSH2 0x13A6 JUMP JUMPDEST JUMPDEST PUSH1 0x20 MUL ADD MLOAD DUP3 DUP3 DUP2 MLOAD DUP2 LT PUSH2 0xE6 JUMPI PUSH2 0xE5 PUSH2 0x13A6 JUMP JUMPDEST JUMPDEST PUSH1 0x20 MUL PUSH1 0x20 ADD ADD DUP2 DUP2 MSTORE POP POP DUP1 DUP1 PUSH1 0x1 ADD SWAP2 POP POP PUSH2 0xB2 JUMP JUMPDEST POP PUSH1 0x0 PUSH2 0x10C DUP3 DUP7 PUSH2 0x127 JUMP JUMPDEST SUB PUSH2 0x11B JUMPI PUSH1 0x1 SWAP2 POP POP PUSH2 0x121 JUMP JUMPDEST PUSH1 0x0 SWAP2 POP POP JUMPDEST SWAP3 SWAP2 POP POP JUMP JUMPDEST PUSH1 0x0 DUP1 PUSH32 0x30644E72E131A029B85045B68181585D2833E84879B9709143E1F593F0000001 SWAP1 POP PUSH1 0x0 PUSH2 0x157 PUSH2 0x2B8 JUMP JUMPDEST SWAP1 POP DUP1 PUSH1 0x80 ADD MLOAD MLOAD PUSH1 0x1 DUP7 MLOAD PUSH2 0x16D SWAP2 SWAP1 PUSH2 0x1404 JUMP JUMPDEST EQ PUSH2 0x177 JUMPI PUSH1 0x0 DUP1 REVERT JUMPDEST PUSH1 0x0 PUSH1 0x40 MLOAD DUP1 PUSH1 0x40 ADD PUSH1 0x40 MSTORE DUP1 PUSH1 0x0 DUP2 MSTORE PUSH1 0x20 ADD PUSH1 0x0 DUP2 MSTORE POP SWAP1 POP PUSH1 0x0 JUMPDEST DUP7 MLOAD DUP2 LT ISZERO PUSH2 0x22A JUMPI DUP4 DUP8 DUP3 DUP2 MLOAD DUP2 LT PUSH2 0x1B2 JUMPI PUSH2 0x1B1 PUSH2 0x13A6 JUMP JUMPDEST JUMPDEST PUSH1 0x20 MUL PUSH1 0x20 ADD ADD MLOAD LT PUSH2 0x1C4 JUMPI PUSH1 0x0 DUP1 REVERT JUMPDEST PUSH2 0x21B DUP3 PUSH2 0x216 DUP6 PUSH1 0x80 ADD MLOAD PUSH1 0x1 DUP6 PUSH2 0x1DD SWAP2 SWAP1 PUSH2 0x1404 JUMP JUMPDEST DUP2 MLOAD DUP2 LT PUSH2 0x1EE JUMPI PUSH2 0x1ED PUSH2 0x13A6 JUMP JUMPDEST JUMPDEST PUSH1 0x20 MUL PUSH1 0x20 ADD ADD MLOAD DUP11 DUP6 DUP2 MLOAD DUP2 LT PUSH2 0x209 JUMPI PUSH2 0x208 PUSH2 0x13A6 JUMP JUMPDEST JUMPDEST PUSH1 0x20 MUL PUSH1 0x20 ADD ADD MLOAD PUSH2 0x7AC JUMP JUMPDEST PUSH2 0x84E JUMP JUMPDEST SWAP2 POP DUP1 DUP1 PUSH1 0x1 ADD SWAP2 POP POP PUSH2 0x195 JUMP JUMPDEST POP PUSH2 0x254 DUP2 DUP4 PUSH1 0x80 ADD MLOAD PUSH1 0x0 DUP2 MLOAD DUP2 LT PUSH2 0x247 JUMPI PUSH2 0x246 PUSH2 0x13A6 JUMP JUMPDEST JUMPDEST PUSH1 0x20 MUL PUSH1 0x20 ADD ADD MLOAD PUSH2 0x84E JUMP JUMPDEST SWAP1 POP PUSH2 0x29A DUP6 PUSH1 0x0 ADD MLOAD DUP7 PUSH1 0x20 ADD MLOAD PUSH2 0x26C DUP5 PUSH2 0x916 JUMP JUMPDEST DUP6 PUSH1 0x40 ADD MLOAD PUSH2 0x27E DUP11 PUSH1 0x40 ADD MLOAD PUSH2 0x916 JUMP JUMPDEST DUP8 PUSH1 0x60 ADD MLOAD PUSH2 0x290 DUP10 PUSH1 0x0 ADD MLOAD PUSH2 0x916 JUMP JUMPDEST DUP10 PUSH1 0x20 ADD MLOAD PUSH2 0x9BB JUMP JUMPDEST PUSH2 0x2AA JUMPI PUSH1 0x1 SWAP4 POP POP POP POP PUSH2 0x2B2 JUMP JUMPDEST PUSH1 0x0 SWAP4 POP POP POP POP JUMPDEST SWAP3 SWAP2 POP POP JUMP JUMPDEST PUSH2 0x2C0 PUSH2 0xED8 JUMP JUMPDEST PUSH1 0x40 MLOAD DUP1 PUSH1 0x40 ADD PUSH1 0x40 MSTORE DUP1 PUSH32 0x14D63971760D93B51C5EFAF52C392F1E867D9C49BCC6100E5D7D9102225D16E2 DUP2 MSTORE PUSH1 0x20 ADD PUSH32 0x17A4EC07359D90B6E4E01587018C6957F613421B5E99CD5983B49D9B7F72B9DD DUP2 MSTORE POP DUP2 PUSH1 0x0 ADD DUP2 SWAP1 MSTORE POP PUSH1 0x40 MLOAD DUP1 PUSH1 0x40 ADD PUSH1 0x40 MSTORE DUP1 PUSH1 0x40 MLOAD DUP1 PUSH1 0x40 ADD PUSH1 0x40 MSTORE DUP1 PUSH32 0x9BC71C1283FE538E73EC5FD2EED7F746612D4257B9B05FC0E587ADE61AFDA7B DUP2 MSTORE PUSH1 0x20 ADD PUSH32 0x1CA738B647A9B247D4CD64D95105A5279A20604200708872ABF3685A652F8DB5 DUP2 MSTORE POP DUP2 MSTORE PUSH1 0x20 ADD PUSH1 0x40 MLOAD DUP1 PUSH1 0x40 ADD PUSH1 0x40 MSTORE DUP1 PUSH32 0xC720B43EAEC063343BAF982A206A3EADD7A1CD63C60B49C13540B73E3E29958 DUP2 MSTORE PUSH1 0x20 ADD PUSH32 0x1CAC92FC27F1A7B8841B8A0701EFC362CE268A3373DFADD21F4F614C7412898D DUP2 MSTORE POP DUP2 MSTORE POP DUP2 PUSH1 0x20 ADD DUP2 SWAP1 MSTORE POP PUSH1 0x40 MLOAD DUP1 PUSH1 0x40 ADD PUSH1 0x40 MSTORE DUP1 PUSH1 0x40 MLOAD DUP1 PUSH1 0x40 ADD PUSH1 0x40 MSTORE DUP1 PUSH32 0x117683402EA4B06AFB91911ABE23D7686B997EE35FCE0F4E2D4F0D1A66989B22 DUP2 MSTORE PUSH1 0x20 ADD PUSH32 0x228611EFCA60DE7CE7DB17837FE35ED8D90A7B31C123C813B1B766BFFCDF0F5 DUP2 MSTORE POP DUP2 MSTORE PUSH1 0x20 ADD PUSH1 0x40 MLOAD DUP1 PUSH1 0x40 ADD PUSH1 0x40 MSTORE DUP1 PUSH32 0x15AFF3B564422CABC1B7CFB378ADA40DD0E0BDEA535FBA9459EE04F29B5C9076 DUP2 MSTORE PUSH1 0x20 ADD PUSH32 0x821CB4E50373E85C9F33104A30B7B7B3BBCB43C1ADA404024720032101FCB67 DUP2 MSTORE POP DUP2 MSTORE POP DUP2 PUSH1 0x40 ADD DUP2 SWAP1 MSTORE POP PUSH1 0x40 MLOAD DUP1 PUSH1 0x40 ADD PUSH1 0x40 MSTORE DUP1 PUSH1 0x40 MLOAD DUP1 PUSH1 0x40 ADD PUSH1 0x40 MSTORE DUP1 PUSH32 0x1893828524A5FD0C6C94FE46D817288DC786020DEED682260D659A54D8E041CE DUP2 MSTORE PUSH1 0x20 ADD PUSH32 0x234C113582B4B397C1D1457387874F4B6A8B0931BF05ADFEE5CDEDB9CE6DF6E1 DUP2 MSTORE POP DUP2 MSTORE PUSH1 0x20 ADD PUSH1 0x40 MLOAD DUP1 PUSH1 0x40 ADD PUSH1 0x40 MSTORE DUP1 PUSH32 0x2C095F63371FBC3ED3F0E288EB6A1EC66D1A7611A57CDF09A4D74443C3D063BC DUP2 MSTORE PUSH1 0x20 ADD PUSH32 0x19E872D03B2806D9A0A5BFF7AAB7B8DDD27FAE36DC23038A016F6D867E1F8CE6 DUP2 MSTORE POP DUP2 MSTORE POP DUP2 PUSH1 0x60 ADD DUP2 SWAP1 MSTORE POP PUSH1 0x4 PUSH8 0xFFFFFFFFFFFFFFFF DUP2 GT ISZERO PUSH2 0x587 JUMPI PUSH2 0x586 PUSH2 0x100C JUMP JUMPDEST JUMPDEST PUSH1 0x40 MLOAD SWAP1 DUP1 DUP3 MSTORE DUP1 PUSH1 0x20 MUL PUSH1 0x20 ADD DUP3 ADD PUSH1 0x40 MSTORE DUP1 ISZERO PUSH2 0x5C0 JUMPI DUP2 PUSH1 0x20 ADD JUMPDEST PUSH2 0x5AD PUSH2 0xF1F JUMP JUMPDEST DUP2 MSTORE PUSH1 0x20 ADD SWAP1 PUSH1 0x1 SWAP1 SUB SWAP1 DUP2 PUSH2 0x5A5 JUMPI SWAP1 POP JUMPDEST POP DUP2 PUSH1 0x80 ADD DUP2 SWAP1 MSTORE POP PUSH1 0x40 MLOAD DUP1 PUSH1 0x40 ADD PUSH1 0x40 MSTORE DUP1 PUSH32 0xC632B2914205DD94DD4DA4101F372A2BAB0970C2DCCE9946886D23893402170 DUP2 MSTORE PUSH1 0x20 ADD PUSH32 0x2715DF20A3973477A438F4058CC95C388EC5C7F3FDAD26B70E7ACF25EB8273CD DUP2 MSTORE POP DUP2 PUSH1 0x80 ADD MLOAD PUSH1 0x0 DUP2 MLOAD DUP2 LT PUSH2 0x636 JUMPI PUSH2 0x635 PUSH2 0x13A6 JUMP JUMPDEST JUMPDEST PUSH1 0x20 MUL PUSH1 0x20 ADD ADD DUP2 SWAP1 MSTORE POP PUSH1 0x40 MLOAD DUP1 PUSH1 0x40 ADD PUSH1 0x40 MSTORE DUP1 PUSH32 0x25644199EBF5B0DAB6B71FBE182E0AF0B83EA0DC866F5E58D461A094834EB3C6 DUP2 MSTORE PUSH1 0x20 ADD PUSH32 0x2C771A1F839718DB31B144D9A1257A8A7080038ED9BF46F3F81B45849F13F2F2 DUP2 MSTORE POP DUP2 PUSH1 0x80 ADD MLOAD PUSH1 0x1 DUP2 MLOAD DUP2 LT PUSH2 0x6AE JUMPI PUSH2 0x6AD PUSH2 0x13A6 JUMP JUMPDEST JUMPDEST PUSH1 0x20 MUL PUSH1 0x20 ADD ADD DUP2 SWAP1 MSTORE POP PUSH1 0x40 MLOAD DUP1 PUSH1 0x40 ADD PUSH1 0x40 MSTORE DUP1 PUSH32 0x2A6AFEC25F17DC33C2BF834218A836FB3F83FFD9F14B8273DA253DDDC427D076 DUP2 MSTORE PUSH1 0x20 ADD PUSH32 0x2961ED6482B2449E873F485D3D2CBC565FBAB17A68649ECE763B0367D6B0FC4A DUP2 MSTORE POP DUP2 PUSH1 0x80 ADD MLOAD PUSH1 0x2 DUP2 MLOAD DUP2 LT PUSH2 0x726 JUMPI PUSH2 0x725 PUSH2 0x13A6 JUMP JUMPDEST JUMPDEST PUSH1 0x20 MUL PUSH1 0x20 ADD ADD DUP2 SWAP1 MSTORE POP PUSH1 0x40 MLOAD DUP1 PUSH1 0x40 ADD PUSH1 0x40 MSTORE DUP1 PUSH32 0x2F2E5B7B293EC0EB43DAA0D2F0F837C5F1ED538D5BAB9DC8A202E7F0885D261E DUP2 MSTORE PUSH1 0x20 ADD PUSH32 0x1C178241A21EBC6B16AFF6951975DAFCC56F9F2F898C863D62206E61C1578DC6 DUP2 MSTORE POP DUP2 PUSH1 0x80 ADD MLOAD PUSH1 0x3 DUP2 MLOAD DUP2 LT PUSH2 0x79E JUMPI PUSH2 0x79D PUSH2 0x13A6 JUMP JUMPDEST JUMPDEST PUSH1 0x20 MUL PUSH1 0x20 ADD ADD DUP2 SWAP1 MSTORE POP SWAP1 JUMP JUMPDEST PUSH2 0x7B4 PUSH2 0xF1F JUMP JUMPDEST PUSH2 0x7BC PUSH2 0xF39 JUMP JUMPDEST DUP4 PUSH1 0x0 ADD MLOAD DUP2 PUSH1 0x0 PUSH1 0x3 DUP2 LT PUSH2 0x7D5 JUMPI PUSH2 0x7D4 PUSH2 0x13A6 JUMP JUMPDEST JUMPDEST PUSH1 0x20 MUL ADD DUP2 DUP2 MSTORE POP POP DUP4 PUSH1 0x20 ADD MLOAD DUP2 PUSH1 0x1 PUSH1 0x3 DUP2 LT PUSH2 0x7F7 JUMPI PUSH2 0x7F6 PUSH2 0x13A6 JUMP JUMPDEST JUMPDEST PUSH1 0x20 MUL ADD DUP2 DUP2 MSTORE POP POP DUP3 DUP2 PUSH1 0x2 PUSH1 0x3 DUP2 LT PUSH2 0x815 JUMPI PUSH2 0x814 PUSH2 0x13A6 JUMP JUMPDEST JUMPDEST PUSH1 0x20 MUL ADD DUP2 DUP2 MSTORE POP POP PUSH1 0x0 PUSH1 0x60 DUP4 PUSH1 0x80 DUP5 PUSH1 0x7 PUSH2 0x7D0 GAS SUB STATICCALL SWAP1 POP DUP1 PUSH1 0x0 DUP2 SUB PUSH2 0x83B JUMPI INVALID JUMPDEST POP DUP1 PUSH2 0x846 JUMPI PUSH1 0x0 DUP1 REVERT JUMPDEST POP POP SWAP3 SWAP2 POP POP JUMP JUMPDEST PUSH2 0x856 PUSH2 0xF1F JUMP JUMPDEST PUSH2 0x85E PUSH2 0xF5B JUMP JUMPDEST DUP4 PUSH1 0x0 ADD MLOAD DUP2 PUSH1 0x0 PUSH1 0x4 DUP2 LT PUSH2 0x877 JUMPI PUSH2 0x876 PUSH2 0x13A6 JUMP JUMPDEST JUMPDEST PUSH1 0x20 MUL ADD DUP2 DUP2 MSTORE POP POP DUP4 PUSH1 0x20 ADD MLOAD DUP2 PUSH1 0x1 PUSH1 0x4 DUP2 LT PUSH2 0x899 JUMPI PUSH2 0x898 PUSH2 0x13A6 JUMP JUMPDEST JUMPDEST PUSH1 0x20 MUL ADD DUP2 DUP2 MSTORE POP POP DUP3 PUSH1 0x0 ADD MLOAD DUP2 PUSH1 0x2 PUSH1 0x4 DUP2 LT PUSH2 0x8BB JUMPI PUSH2 0x8BA PUSH2 0x13A6 JUMP JUMPDEST JUMPDEST PUSH1 0x20 MUL ADD DUP2 DUP2 MSTORE POP POP DUP3 PUSH1 0x20 ADD MLOAD DUP2 PUSH1 0x3 PUSH1 0x4 DUP2 LT PUSH2 0x8DD JUMPI PUSH2 0x8DC PUSH2 0x13A6 JUMP JUMPDEST JUMPDEST PUSH1 0x20 MUL ADD DUP2 DUP2 MSTORE POP POP PUSH1 0x0 PUSH1 0x60 DUP4 PUSH1 0xC0 DUP5 PUSH1 0x6 PUSH2 0x7D0 GAS SUB STATICCALL SWAP1 POP DUP1 PUSH1 0x0 DUP2 SUB PUSH2 0x903 JUMPI INVALID JUMPDEST POP DUP1 PUSH2 0x90E JUMPI PUSH1 0x0 DUP1 REVERT JUMPDEST POP POP SWAP3 SWAP2 POP POP JUMP JUMPDEST PUSH2 0x91E PUSH2 0xF1F JUMP JUMPDEST PUSH1 0x0 PUSH32 0x30644E72E131A029B85045B68181585D97816A916871CA8D3C208C16D87CFD47 SWAP1 POP PUSH1 0x0 DUP4 PUSH1 0x0 ADD MLOAD EQ DUP1 ISZERO PUSH2 0x95B JUMPI POP PUSH1 0x0 DUP4 PUSH1 0x20 ADD MLOAD EQ JUMPDEST ISZERO PUSH2 0x97F JUMPI PUSH1 0x40 MLOAD DUP1 PUSH1 0x40 ADD PUSH1 0x40 MSTORE DUP1 PUSH1 0x0 DUP2 MSTORE PUSH1 0x20 ADD PUSH1 0x0 DUP2 MSTORE POP SWAP2 POP POP PUSH2 0x9B6 JUMP JUMPDEST PUSH1 0x40 MLOAD DUP1 PUSH1 0x40 ADD PUSH1 0x40 MSTORE DUP1 DUP5 PUSH1 0x0 ADD MLOAD DUP2 MSTORE PUSH1 0x20 ADD DUP3 DUP6 PUSH1 0x20 ADD MLOAD PUSH2 0x9A4 SWAP2 SWAP1 PUSH2 0x1467 JUMP JUMPDEST DUP4 PUSH2 0x9AF SWAP2 SWAP1 PUSH2 0x1498 JUMP JUMPDEST DUP2 MSTORE POP SWAP2 POP POP JUMPDEST SWAP2 SWAP1 POP JUMP JUMPDEST PUSH1 0x0 DUP1 PUSH1 0x4 PUSH8 0xFFFFFFFFFFFFFFFF DUP2 GT ISZERO PUSH2 0x9D9 JUMPI PUSH2 0x9D8 PUSH2 0x100C JUMP JUMPDEST JUMPDEST PUSH1 0x40 MLOAD SWAP1 DUP1 DUP3 MSTORE DUP1 PUSH1 0x20 MUL PUSH1 0x20 ADD DUP3 ADD PUSH1 0x40 MSTORE DUP1 ISZERO PUSH2 0xA12 JUMPI DUP2 PUSH1 0x20 ADD JUMPDEST PUSH2 0x9FF PUSH2 0xF1F JUMP JUMPDEST DUP2 MSTORE PUSH1 0x20 ADD SWAP1 PUSH1 0x1 SWAP1 SUB SWAP1 DUP2 PUSH2 0x9F7 JUMPI SWAP1 POP JUMPDEST POP SWAP1 POP PUSH1 0x0 PUSH1 0x4 PUSH8 0xFFFFFFFFFFFFFFFF DUP2 GT ISZERO PUSH2 0xA32 JUMPI PUSH2 0xA31 PUSH2 0x100C JUMP JUMPDEST JUMPDEST PUSH1 0x40 MLOAD SWAP1 DUP1 DUP3 MSTORE DUP1 PUSH1 0x20 MUL PUSH1 0x20 ADD DUP3 ADD PUSH1 0x40 MSTORE DUP1 ISZERO PUSH2 0xA6B JUMPI DUP2 PUSH1 0x20 ADD JUMPDEST PUSH2 0xA58 PUSH2 0xF7D JUMP JUMPDEST DUP2 MSTORE PUSH1 0x20 ADD SWAP1 PUSH1 0x1 SWAP1 SUB SWAP1 DUP2 PUSH2 0xA50 JUMPI SWAP1 POP JUMPDEST POP SWAP1 POP DUP11 DUP3 PUSH1 0x0 DUP2 MLOAD DUP2 LT PUSH2 0xA83 JUMPI PUSH2 0xA82 PUSH2 0x13A6 JUMP JUMPDEST JUMPDEST PUSH1 0x20 MUL PUSH1 0x20 ADD ADD DUP2 SWAP1 MSTORE POP DUP9 DUP3 PUSH1 0x1 DUP2 MLOAD DUP2 LT PUSH2 0xAA3 JUMPI PUSH2 0xAA2 PUSH2 0x13A6 JUMP JUMPDEST JUMPDEST PUSH1 0x20 MUL PUSH1 0x20 ADD ADD DUP2 SWAP1 MSTORE POP DUP7 DUP3 PUSH1 0x2 DUP2 MLOAD DUP2 LT PUSH2 0xAC3 JUMPI PUSH2 0xAC2 PUSH2 0x13A6 JUMP JUMPDEST JUMPDEST PUSH1 0x20 MUL PUSH1 0x20 ADD ADD DUP2 SWAP1 MSTORE POP DUP5 DUP3 PUSH1 0x3 DUP2 MLOAD DUP2 LT PUSH2 0xAE3 JUMPI PUSH2 0xAE2 PUSH2 0x13A6 JUMP JUMPDEST JUMPDEST PUSH1 0x20 MUL PUSH1 0x20 ADD ADD DUP2 SWAP1 MSTORE POP DUP10 DUP2 PUSH1 0x0 DUP2 MLOAD DUP2 LT PUSH2 0xB03 JUMPI PUSH2 0xB02 PUSH2 0x13A6 JUMP JUMPDEST JUMPDEST PUSH1 0x20 MUL PUSH1 0x20 ADD ADD DUP2 SWAP1 MSTORE POP DUP8 DUP2 PUSH1 0x1 DUP2 MLOAD DUP2 LT PUSH2 0xB23 JUMPI PUSH2 0xB22 PUSH2 0x13A6 JUMP JUMPDEST JUMPDEST PUSH1 0x20 MUL PUSH1 0x20 ADD ADD DUP2 SWAP1 MSTORE POP DUP6 DUP2 PUSH1 0x2 DUP2 MLOAD DUP2 LT PUSH2 0xB43 JUMPI PUSH2 0xB42 PUSH2 0x13A6 JUMP JUMPDEST JUMPDEST PUSH1 0x20 MUL PUSH1 0x20 ADD ADD DUP2 SWAP1 MSTORE POP DUP4 DUP2 PUSH1 0x3 DUP2 MLOAD DUP2 LT PUSH2 0xB63 JUMPI PUSH2 0xB62 PUSH2 0x13A6 JUMP JUMPDEST JUMPDEST PUSH1 0x20 MUL PUSH1 0x20 ADD ADD DUP2 SWAP1 MSTORE POP PUSH2 0xB78 DUP3 DUP3 PUSH2 0xB88 JUMP JUMPDEST SWAP3 POP POP POP SWAP9 SWAP8 POP POP POP POP POP POP POP POP JUMP JUMPDEST PUSH1 0x0 DUP2 MLOAD DUP4 MLOAD EQ PUSH2 0xB98 JUMPI PUSH1 0x0 DUP1 REVERT JUMPDEST PUSH1 0x0 DUP4 MLOAD SWAP1 POP PUSH1 0x0 PUSH1 0x6 DUP3 PUSH2 0xBAD SWAP2 SWAP1 PUSH2 0x14CC JUMP JUMPDEST SWAP1 POP PUSH1 0x0 DUP2 PUSH8 0xFFFFFFFFFFFFFFFF DUP2 GT ISZERO PUSH2 0xBCB JUMPI PUSH2 0xBCA PUSH2 0x100C JUMP JUMPDEST JUMPDEST PUSH1 0x40 MLOAD SWAP1 DUP1 DUP3 MSTORE DUP1 PUSH1 0x20 MUL PUSH1 0x20 ADD DUP3 ADD PUSH1 0x40 MSTORE DUP1 ISZERO PUSH2 0xBF9 JUMPI DUP2 PUSH1 0x20 ADD PUSH1 0x20 DUP3 MUL DUP1 CALLDATASIZE DUP4 CALLDATACOPY DUP1 DUP3 ADD SWAP2 POP POP SWAP1 POP JUMPDEST POP SWAP1 POP PUSH1 0x0 JUMPDEST DUP4 DUP2 LT ISZERO PUSH2 0xE78 JUMPI DUP7 DUP2 DUP2 MLOAD DUP2 LT PUSH2 0xC1A JUMPI PUSH2 0xC19 PUSH2 0x13A6 JUMP JUMPDEST JUMPDEST PUSH1 0x20 MUL PUSH1 0x20 ADD ADD MLOAD PUSH1 0x0 ADD MLOAD DUP3 PUSH1 0x0 PUSH1 0x6 DUP5 PUSH2 0xC36 SWAP2 SWAP1 PUSH2 0x14CC JUMP JUMPDEST PUSH2 0xC40 SWAP2 SWAP1 PUSH2 0x1404 JUMP JUMPDEST DUP2 MLOAD DUP2 LT PUSH2 0xC51 JUMPI PUSH2 0xC50 PUSH2 0x13A6 JUMP JUMPDEST JUMPDEST PUSH1 0x20 MUL PUSH1 0x20 ADD ADD DUP2 DUP2 MSTORE POP POP DUP7 DUP2 DUP2 MLOAD DUP2 LT PUSH2 0xC70 JUMPI PUSH2 0xC6F PUSH2 0x13A6 JUMP JUMPDEST JUMPDEST PUSH1 0x20 MUL PUSH1 0x20 ADD ADD MLOAD PUSH1 0x20 ADD MLOAD DUP3 PUSH1 0x1 PUSH1 0x6 DUP5 PUSH2 0xC8C SWAP2 SWAP1 PUSH2 0x14CC JUMP JUMPDEST PUSH2 0xC96 SWAP2 SWAP1 PUSH2 0x1404 JUMP JUMPDEST DUP2 MLOAD DUP2 LT PUSH2 0xCA7 JUMPI PUSH2 0xCA6 PUSH2 0x13A6 JUMP JUMPDEST JUMPDEST PUSH1 0x20 MUL PUSH1 0x20 ADD ADD DUP2 DUP2 MSTORE POP POP DUP6 DUP2 DUP2 MLOAD DUP2 LT PUSH2 0xCC6 JUMPI PUSH2 0xCC5 PUSH2 0x13A6 JUMP JUMPDEST JUMPDEST PUSH1 0x20 MUL PUSH1 0x20 ADD ADD MLOAD PUSH1 0x0 ADD MLOAD PUSH1 0x1 PUSH1 0x2 DUP2 LT PUSH2 0xCE5 JUMPI PUSH2 0xCE4 PUSH2 0x13A6 JUMP JUMPDEST JUMPDEST PUSH1 0x20 MUL ADD MLOAD DUP3 PUSH1 0x2 PUSH1 0x6 DUP5 PUSH2 0xCFA SWAP2 SWAP1 PUSH2 0x14CC JUMP JUMPDEST PUSH2 0xD04 SWAP2 SWAP1 PUSH2 0x1404 JUMP JUMPDEST DUP2 MLOAD DUP2 LT PUSH2 0xD15 JUMPI PUSH2 0xD14 PUSH2 0x13A6 JUMP JUMPDEST JUMPDEST PUSH1 0x20 MUL PUSH1 0x20 ADD ADD DUP2 DUP2 MSTORE POP POP DUP6 DUP2 DUP2 MLOAD DUP2 LT PUSH2 0xD34 JUMPI PUSH2 0xD33 PUSH2 0x13A6 JUMP JUMPDEST JUMPDEST PUSH1 0x20 MUL PUSH1 0x20 ADD ADD MLOAD PUSH1 0x0 ADD MLOAD PUSH1 0x0 PUSH1 0x2 DUP2 LT PUSH2 0xD53 JUMPI PUSH2 0xD52 PUSH2 0x13A6 JUMP JUMPDEST JUMPDEST PUSH1 0x20 MUL ADD MLOAD DUP3 PUSH1 0x3 PUSH1 0x6 DUP5 PUSH2 0xD68 SWAP2 SWAP1 PUSH2 0x14CC JUMP JUMPDEST PUSH2 0xD72 SWAP2 SWAP1 PUSH2 0x1404 JUMP JUMPDEST DUP2 MLOAD DUP2 LT PUSH2 0xD83 JUMPI PUSH2 0xD82 PUSH2 0x13A6 JUMP JUMPDEST JUMPDEST PUSH1 0x20 MUL PUSH1 0x20 ADD ADD DUP2 DUP2 MSTORE POP POP DUP6 DUP2 DUP2 MLOAD DUP2 LT PUSH2 0xDA2 JUMPI PUSH2 0xDA1 PUSH2 0x13A6 JUMP JUMPDEST JUMPDEST PUSH1 0x20 MUL PUSH1 0x20 ADD ADD MLOAD PUSH1 0x20 ADD MLOAD PUSH1 0x1 PUSH1 0x2 DUP2 LT PUSH2 0xDC1 JUMPI PUSH2 0xDC0 PUSH2 0x13A6 JUMP JUMPDEST JUMPDEST PUSH1 0x20 MUL ADD MLOAD DUP3 PUSH1 0x4 PUSH1 0x6 DUP5 PUSH2 0xDD6 SWAP2 SWAP1 PUSH2 0x14CC JUMP JUMPDEST PUSH2 0xDE0 SWAP2 SWAP1 PUSH2 0x1404 JUMP JUMPDEST DUP2 MLOAD DUP2 LT PUSH2 0xDF1 JUMPI PUSH2 0xDF0 PUSH2 0x13A6 JUMP JUMPDEST JUMPDEST PUSH1 0x20 MUL PUSH1 0x20 ADD ADD DUP2 DUP2 MSTORE POP POP DUP6 DUP2 DUP2 MLOAD DUP2 LT PUSH2 0xE10 JUMPI PUSH2 0xE0F PUSH2 0x13A6 JUMP JUMPDEST JUMPDEST PUSH1 0x20 MUL PUSH1 0x20 ADD ADD MLOAD PUSH1 0x20 ADD MLOAD PUSH1 0x0 PUSH1 0x2 DUP2 LT PUSH2 0xE2F JUMPI PUSH2 0xE2E PUSH2 0x13A6 JUMP JUMPDEST JUMPDEST PUSH1 0x20 MUL ADD MLOAD DUP3 PUSH1 0x5 PUSH1 0x6 DUP5 PUSH2 0xE44 SWAP2 SWAP1 PUSH2 0x14CC JUMP JUMPDEST PUSH2 0xE4E SWAP2 SWAP1 PUSH2 0x1404 JUMP JUMPDEST DUP2 MLOAD DUP2 LT PUSH2 0xE5F JUMPI PUSH2 0xE5E PUSH2 0x13A6 JUMP JUMPDEST JUMPDEST PUSH1 0x20 MUL PUSH1 0x20 ADD ADD DUP2 DUP2 MSTORE POP POP DUP1 DUP1 PUSH1 0x1 ADD SWAP2 POP POP PUSH2 0xBFF JUMP JUMPDEST POP PUSH2 0xE81 PUSH2 0xFA3 JUMP JUMPDEST PUSH1 0x0 PUSH1 0x20 DUP3 PUSH1 0x20 DUP7 MUL PUSH1 0x20 DUP7 ADD PUSH1 0x8 PUSH2 0x7D0 GAS SUB STATICCALL SWAP1 POP DUP1 PUSH1 0x0 DUP2 SUB PUSH2 0xEA3 JUMPI INVALID JUMPDEST POP DUP1 PUSH2 0xEAE JUMPI PUSH1 0x0 DUP1 REVERT JUMPDEST PUSH1 0x0 DUP3 PUSH1 0x0 PUSH1 0x1 DUP2 LT PUSH2 0xEC4 JUMPI PUSH2 0xEC3 PUSH2 0x13A6 JUMP JUMPDEST JUMPDEST PUSH1 0x20 MUL ADD MLOAD EQ ISZERO SWAP6 POP POP POP POP POP POP SWAP3 SWAP2 POP POP JUMP JUMPDEST PUSH1 0x40 MLOAD DUP1 PUSH1 0xA0 ADD PUSH1 0x40 MSTORE DUP1 PUSH2 0xEEB PUSH2 0xF1F JUMP JUMPDEST DUP2 MSTORE PUSH1 0x20 ADD PUSH2 0xEF8 PUSH2 0xF7D JUMP JUMPDEST DUP2 MSTORE PUSH1 0x20 ADD PUSH2 0xF05 PUSH2 0xF7D JUMP JUMPDEST DUP2 MSTORE PUSH1 0x20 ADD PUSH2 0xF12 PUSH2 0xF7D JUMP JUMPDEST DUP2 MSTORE PUSH1 0x20 ADD PUSH1 0x60 DUP2 MSTORE POP SWAP1 JUMP JUMPDEST PUSH1 0x40 MLOAD DUP1 PUSH1 0x40 ADD PUSH1 0x40 MSTORE DUP1 PUSH1 0x0 DUP2 MSTORE PUSH1 0x20 ADD PUSH1 0x0 DUP2 MSTORE POP SWAP1 JUMP JUMPDEST PUSH1 0x40 MLOAD DUP1 PUSH1 0x60 ADD PUSH1 0x40 MSTORE DUP1 PUSH1 0x3 SWAP1 PUSH1 0x20 DUP3 MUL DUP1 CALLDATASIZE DUP4 CALLDATACOPY DUP1 DUP3 ADD SWAP2 POP POP SWAP1 POP POP SWAP1 JUMP JUMPDEST PUSH1 0x40 MLOAD DUP1 PUSH1 0x80 ADD PUSH1 0x40 MSTORE DUP1 PUSH1 0x4 SWAP1 PUSH1 0x20 DUP3 MUL DUP1 CALLDATASIZE DUP4 CALLDATACOPY DUP1 DUP3 ADD SWAP2 POP POP SWAP1 POP POP SWAP1 JUMP JUMPDEST PUSH1 0x40 MLOAD DUP1 PUSH1 0x40 ADD PUSH1 0x40 MSTORE DUP1 PUSH2 0xF90 PUSH2 0xFC5 JUMP JUMPDEST DUP2 MSTORE PUSH1 0x20 ADD PUSH2 0xF9D PUSH2 0xFC5 JUMP JUMPDEST DUP2 MSTORE POP SWAP1 JUMP JUMPDEST PUSH1 0x40 MLOAD DUP1 PUSH1 0x20 ADD PUSH1 0x40 MSTORE DUP1 PUSH1 0x1 SWAP1 PUSH1 0x20 DUP3 MUL DUP1 CALLDATASIZE DUP4 CALLDATACOPY DUP1 DUP3 ADD SWAP2 POP POP SWAP1 POP POP SWAP1 JUMP JUMPDEST PUSH1 0x40 MLOAD DUP1 PUSH1 0x40 ADD PUSH1 0x40 MSTORE DUP1 PUSH1 0x2 SWAP1 PUSH1 0x20 DUP3 MUL DUP1 CALLDATASIZE DUP4 CALLDATACOPY DUP1 DUP3 ADD SWAP2 POP POP SWAP1 POP POP SWAP1 JUMP JUMPDEST PUSH1 0x0 PUSH1 0x40 MLOAD SWAP1 POP SWAP1 JUMP JUMPDEST PUSH1 0x0 DUP1 REVERT JUMPDEST PUSH1 0x0 DUP1 REVERT JUMPDEST PUSH1 0x0 PUSH1 0x1F NOT PUSH1 0x1F DUP4 ADD AND SWAP1 POP SWAP2 SWAP1 POP JUMP JUMPDEST PUSH32 0x4E487B7100000000000000000000000000000000000000000000000000000000 PUSH1 0x0 MSTORE PUSH1 0x41 PUSH1 0x4 MSTORE PUSH1 0x24 PUSH1 0x0 REVERT JUMPDEST PUSH2 0x1044 DUP3 PUSH2 0xFFB JUMP JUMPDEST DUP2 ADD DUP2 DUP2 LT PUSH8 0xFFFFFFFFFFFFFFFF DUP3 GT OR ISZERO PUSH2 0x1063 JUMPI PUSH2 0x1062 PUSH2 0x100C JUMP JUMPDEST JUMPDEST DUP1 PUSH1 0x40 MSTORE POP POP POP JUMP JUMPDEST PUSH1 0x0 PUSH2 0x1076 PUSH2 0xFE7 JUMP JUMPDEST SWAP1 POP PUSH2 0x1082 DUP3 DUP3 PUSH2 0x103B JUMP JUMPDEST SWAP2 SWAP1 POP JUMP JUMPDEST PUSH1 0x0 DUP2 SWAP1 POP SWAP2 SWAP1 POP JUMP JUMPDEST PUSH2 0x109A DUP2 PUSH2 0x1087 JUMP JUMPDEST DUP2 EQ PUSH2 0x10A5 JUMPI PUSH1 0x0 DUP1 REVERT JUMPDEST POP JUMP JUMPDEST PUSH1 0x0 DUP2 CALLDATALOAD SWAP1 POP PUSH2 0x10B7 DUP2 PUSH2 0x1091 JUMP JUMPDEST SWAP3 SWAP2 POP POP JUMP JUMPDEST PUSH1 0x0 PUSH1 0x40 DUP3 DUP5 SUB SLT ISZERO PUSH2 0x10D3 JUMPI PUSH2 0x10D2 PUSH2 0xFF6 JUMP JUMPDEST JUMPDEST PUSH2 0x10DD PUSH1 0x40 PUSH2 0x106C JUMP JUMPDEST SWAP1 POP PUSH1 0x0 PUSH2 0x10ED DUP5 DUP3 DUP6 ADD PUSH2 0x10A8 JUMP JUMPDEST PUSH1 0x0 DUP4 ADD MSTORE POP PUSH1 0x20 PUSH2 0x1101 DUP5 DUP3 DUP6 ADD PUSH2 0x10A8 JUMP JUMPDEST PUSH1 0x20 DUP4 ADD MSTORE POP SWAP3 SWAP2 POP POP JUMP JUMPDEST PUSH1 0x0 DUP1 REVERT JUMPDEST PUSH1 0x0 PUSH8 0xFFFFFFFFFFFFFFFF DUP3 GT ISZERO PUSH2 0x112D JUMPI PUSH2 0x112C PUSH2 0x100C JUMP JUMPDEST JUMPDEST PUSH1 0x20 DUP3 MUL SWAP1 POP SWAP2 SWAP1 POP JUMP JUMPDEST PUSH1 0x0 DUP1 REVERT JUMPDEST PUSH1 0x0 PUSH2 0x1150 PUSH2 0x114B DUP5 PUSH2 0x1112 JUMP JUMPDEST PUSH2 0x106C JUMP JUMPDEST SWAP1 POP DUP1 PUSH1 0x20 DUP5 MUL DUP4 ADD DUP6 DUP2 GT ISZERO PUSH2 0x116A JUMPI PUSH2 0x1169 PUSH2 0x1138 JUMP JUMPDEST JUMPDEST DUP4 JUMPDEST DUP2 DUP2 LT ISZERO PUSH2 0x1193 JUMPI DUP1 PUSH2 0x117F DUP9 DUP3 PUSH2 0x10A8 JUMP JUMPDEST DUP5 MSTORE PUSH1 0x20 DUP5 ADD SWAP4 POP POP PUSH1 0x20 DUP2 ADD SWAP1 POP PUSH2 0x116C JUMP JUMPDEST POP POP POP SWAP4 SWAP3 POP POP POP JUMP JUMPDEST PUSH1 0x0 DUP3 PUSH1 0x1F DUP4 ADD SLT PUSH2 0x11B2 JUMPI PUSH2 0x11B1 PUSH2 0x110D JUMP JUMPDEST JUMPDEST PUSH1 0x2 PUSH2 0x11BF DUP5 DUP3 DUP6 PUSH2 0x113D JUMP JUMPDEST SWAP2 POP POP SWAP3 SWAP2 POP POP JUMP JUMPDEST PUSH1 0x0 PUSH1 0x80 DUP3 DUP5 SUB SLT ISZERO PUSH2 0x11DE JUMPI PUSH2 0x11DD PUSH2 0xFF6 JUMP JUMPDEST JUMPDEST PUSH2 0x11E8 PUSH1 0x40 PUSH2 0x106C JUMP JUMPDEST SWAP1 POP PUSH1 0x0 PUSH2 0x11F8 DUP5 DUP3 DUP6 ADD PUSH2 0x119D JUMP JUMPDEST PUSH1 0x0 DUP4 ADD MSTORE POP PUSH1 0x40 PUSH2 0x120C DUP5 DUP3 DUP6 ADD PUSH2 0x119D JUMP JUMPDEST PUSH1 0x20 DUP4 ADD MSTORE POP SWAP3 SWAP2 POP POP JUMP JUMPDEST PUSH1 0x0 PUSH2 0x100 DUP3 DUP5 SUB SLT ISZERO PUSH2 0x122F JUMPI PUSH2 0x122E PUSH2 0xFF6 JUMP JUMPDEST JUMPDEST PUSH2 0x1239 PUSH1 0x60 PUSH2 0x106C JUMP JUMPDEST SWAP1 POP PUSH1 0x0 PUSH2 0x1249 DUP5 DUP3 DUP6 ADD PUSH2 0x10BD JUMP JUMPDEST PUSH1 0x0 DUP4 ADD MSTORE POP PUSH1 0x40 PUSH2 0x125D DUP5 DUP3 DUP6 ADD PUSH2 0x11C8 JUMP JUMPDEST PUSH1 0x20 DUP4 ADD MSTORE POP PUSH1 0xC0 PUSH2 0x1271 DUP5 DUP3 DUP6 ADD PUSH2 0x10BD JUMP JUMPDEST PUSH1 0x40 DUP4 ADD MSTORE POP SWAP3 SWAP2 POP POP JUMP JUMPDEST PUSH1 0x0 PUSH8 0xFFFFFFFFFFFFFFFF DUP3 GT ISZERO PUSH2 0x1298 JUMPI PUSH2 0x1297 PUSH2 0x100C JUMP JUMPDEST JUMPDEST PUSH1 0x20 DUP3 MUL SWAP1 POP SWAP2 SWAP1 POP JUMP JUMPDEST PUSH1 0x0 PUSH2 0x12B6 PUSH2 0x12B1 DUP5 PUSH2 0x127D JUMP JUMPDEST PUSH2 0x106C JUMP JUMPDEST SWAP1 POP DUP1 PUSH1 0x20 DUP5 MUL DUP4 ADD DUP6 DUP2 GT ISZERO PUSH2 0x12D0 JUMPI PUSH2 0x12CF PUSH2 0x1138 JUMP JUMPDEST JUMPDEST DUP4 JUMPDEST DUP2 DUP2 LT ISZERO PUSH2 0x12F9 JUMPI DUP1 PUSH2 0x12E5 DUP9 DUP3 PUSH2 0x10A8 JUMP JUMPDEST DUP5 MSTORE PUSH1 0x20 DUP5 ADD SWAP4 POP POP PUSH1 0x20 DUP2 ADD SWAP1 POP PUSH2 0x12D2 JUMP JUMPDEST POP POP POP SWAP4 SWAP3 POP POP POP JUMP JUMPDEST PUSH1 0x0 DUP3 PUSH1 0x1F DUP4 ADD SLT PUSH2 0x1318 JUMPI PUSH2 0x1317 PUSH2 0x110D JUMP JUMPDEST JUMPDEST PUSH1 0x3 PUSH2 0x1325 DUP5 DUP3 DUP6 PUSH2 0x12A3 JUMP JUMPDEST SWAP2 POP POP SWAP3 SWAP2 POP POP JUMP JUMPDEST PUSH1 0x0 DUP1 PUSH2 0x160 DUP4 DUP6 SUB SLT ISZERO PUSH2 0x1346 JUMPI PUSH2 0x1345 PUSH2 0xFF1 JUMP JUMPDEST JUMPDEST PUSH1 0x0 PUSH2 0x1354 DUP6 DUP3 DUP7 ADD PUSH2 0x1218 JUMP JUMPDEST SWAP3 POP POP PUSH2 0x100 PUSH2 0x1366 DUP6 DUP3 DUP7 ADD PUSH2 0x1303 JUMP JUMPDEST SWAP2 POP POP SWAP3 POP SWAP3 SWAP1 POP JUMP JUMPDEST PUSH1 0x0 DUP2 ISZERO ISZERO SWAP1 POP SWAP2 SWAP1 POP JUMP JUMPDEST PUSH2 0x1385 DUP2 PUSH2 0x1370 JUMP JUMPDEST DUP3 MSTORE POP POP JUMP JUMPDEST PUSH1 0x0 PUSH1 0x20 DUP3 ADD SWAP1 POP PUSH2 0x13A0 PUSH1 0x0 DUP4 ADD DUP5 PUSH2 0x137C JUMP JUMPDEST SWAP3 SWAP2 POP POP JUMP JUMPDEST PUSH32 0x4E487B7100000000000000000000000000000000000000000000000000000000 PUSH1 0x0 MSTORE PUSH1 0x32 PUSH1 0x4 MSTORE PUSH1 0x24 PUSH1 0x0 REVERT JUMPDEST PUSH32 0x4E487B7100000000000000000000000000000000000000000000000000000000 PUSH1 0x0 MSTORE PUSH1 0x11 PUSH1 0x4 MSTORE PUSH1 0x24 PUSH1 0x0 REVERT JUMPDEST PUSH1 0x0 PUSH2 0x140F DUP3 PUSH2 0x1087 JUMP JUMPDEST SWAP2 POP PUSH2 0x141A DUP4 PUSH2 0x1087 JUMP JUMPDEST SWAP3 POP DUP3 DUP3 ADD SWAP1 POP DUP1 DUP3 GT ISZERO PUSH2 0x1432 JUMPI PUSH2 0x1431 PUSH2 0x13D5 JUMP JUMPDEST JUMPDEST SWAP3 SWAP2 POP POP JUMP JUMPDEST PUSH32 0x4E487B7100000000000000000000000000000000000000000000000000000000 PUSH1 0x0 MSTORE PUSH1 0x12 PUSH1 0x4 MSTORE PUSH1 0x24 PUSH1 0x0 REVERT JUMPDEST PUSH1 0x0 PUSH2 0x1472 DUP3 PUSH2 0x1087 JUMP JUMPDEST SWAP2 POP PUSH2 0x147D DUP4 PUSH2 0x1087 JUMP JUMPDEST SWAP3 POP DUP3 PUSH2 0x148D JUMPI PUSH2 0x148C PUSH2 0x1438 JUMP JUMPDEST JUMPDEST DUP3 DUP3 MOD SWAP1 POP SWAP3 SWAP2 POP POP JUMP JUMPDEST PUSH1 0x0 PUSH2 0x14A3 DUP3 PUSH2 0x1087 JUMP JUMPDEST SWAP2 POP PUSH2 0x14AE DUP4 PUSH2 0x1087 JUMP JUMPDEST SWAP3 POP DUP3 DUP3 SUB SWAP1 POP DUP2 DUP2 GT ISZERO PUSH2 0x14C6 JUMPI PUSH2 0x14C5 PUSH2 0x13D5 JUMP JUMPDEST JUMPDEST SWAP3 SWAP2 POP POP JUMP JUMPDEST PUSH1 0x0 PUSH2 0x14D7 DUP3 PUSH2 0x1087 JUMP JUMPDEST SWAP2 POP PUSH2 0x14E2 DUP4 PUSH2 0x1087 JUMP JUMPDEST SWAP3 POP DUP3 DUP3 MUL PUSH2 0x14F0 DUP2 PUSH2 0x1087 JUMP JUMPDEST SWAP2 POP DUP3 DUP3 DIV DUP5 EQ DUP4 ISZERO OR PUSH2 0x1507 JUMPI PUSH2 0x1506 PUSH2 0x13D5 JUMP JUMPDEST JUMPDEST POP SWAP3 SWAP2 POP POP JUMP INVALID LOG2 PUSH5 0x6970667358 0x22 SLT KECCAK256 GT 0xB3 SSTORE MUL XOR STATICCALL 0xD5 SWAP12 DUP6 0x2B 0xD4 SWAP15 LOG3 0x4D DUP6 0xD8 0xBC 0xDE 0xFC 0x2D 0xE1 DUP2 0xB2 0xEC 0xA6 0xCD PUSH9 0x342D5EC1D564736F6C PUSH4 0x4300081C STOP CALLER "},"methodIdentifiers":{"verifyTx(((uint256,uint256),(uint256[2],uint256[2]),(uint256,uint256)),uint256[3])":"0f9c5d49"}}}}}