{
  "_format": "hh-sol-artifact-1",
  "contractName": "Voting",
  "sourceName": "contracts/Voting.sol",
  "abi": [
    {
      "inputs": [
        {
          "internalType": "address",
          "name": "verifierAddress",
          "type": "address"
        },
        {
          "internalType": "address",
          "name": "voterNFTAddress",
          "type": "address"
        }
      ],
      "stateMutability": "nonpayable",
      "type": "constructor"
    },
    {
      "inputs": [
        {
          "internalType": "address",
          "name": "owner",
          "type": "address"
        }
      ],
      "name": "OwnableInvalidOwner",
      "type": "error"
    },
    {
      "inputs": [
        {
          "internalType": "address",
          "name": "account",
          "type": "address"
        }
      ],
      "name": "OwnableUnauthorizedAccount",
      "type": "error"
    },
    {
      "anonymous": false,
      "inputs": [
        {
          "indexed": true,
          "internalType": "uint256",
          "name": "voteId",
          "type": "uint256"
        },
        {
          "indexed": false,
          "internalType": "string",
          "name": "reason",
          "type": "string"
        }
      ],
      "name": "DisputeTriggered",
      "type": "event"
    },
    {
      "anonymous": false,
      "inputs": [
        {
          "indexed": true,
          "internalType": "address",
          "name": "previousOwner",
          "type": "address"
        },
        {
          "indexed": true,
          "internalType": "address",
          "name": "newOwner",
          "type": "address"
        }
      ],
      "name": "OwnershipTransferred",
      "type": "event"
    },
    {
      "anonymous": false,
      "inputs": [
        {
          "indexed": true,
          "internalType": "address",
          "name": "voter",
          "type": "address"
        },
        {
          "indexed": true,
          "internalType": "uint256",
          "name": "voteId",
          "type": "uint256"
        },
        {
          "indexed": false,
          "internalType": "enum Voting.VoteType",
          "name": "voteType",
          "type": "uint8"
        }
      ],
      "name": "VoteCast",
      "type": "event"
    },
    {
      "inputs": [
        {
          "internalType": "uint256[2]",
          "name": "a",
          "type": "uint256[2]"
        },
        {
          "internalType": "uint256[2][2]",
          "name": "b",
          "type": "uint256[2][2]"
        },
        {
          "internalType": "uint256[2]",
          "name": "c",
          "type": "uint256[2]"
        },
        {
          "internalType": "uint256[3]",
          "name": "input",
          "type": "uint256[3]"
        },
        {
          "internalType": "uint256",
          "name": "candidateId",
          "type": "uint256"
        },
        {
          "internalType": "string",
          "name": "tokenURI",
          "type": "string"
        }
      ],
      "name": "castApprovalVote",
      "outputs": [],
      "stateMutability": "nonpayable",
      "type": "function"
    },
    {
      "inputs": [
        {
          "internalType": "uint256[2]",
          "name": "a",
          "type": "uint256[2]"
        },
        {
          "internalType": "uint256[2][2]",
          "name": "b",
          "type": "uint256[2][2]"
        },
        {
          "internalType": "uint256[2]",
          "name": "c",
          "type": "uint256[2]"
        },
        {
          "internalType": "uint256[3]",
          "name": "input",
          "type": "uint256[3]"
        },
        {
          "internalType": "uint256",
          "name": "candidateId",
          "type": "uint256"
        },
        {
          "internalType": "uint256",
          "name": "voteTokens",
          "type": "uint256"
        },
        {
          "internalType": "string",
          "name": "tokenURI",
          "type": "string"
        }
      ],
      "name": "castQuadraticVote",
      "outputs": [],
      "stateMutability": "nonpayable",
      "type": "function"
    },
    {
      "inputs": [
        {
          "internalType": "uint256[2]",
          "name": "a",
          "type": "uint256[2]"
        },
        {
          "internalType": "uint256[2][2]",
          "name": "b",
          "type": "uint256[2][2]"
        },
        {
          "internalType": "uint256[2]",
          "name": "c",
          "type": "uint256[2]"
        },
        {
          "internalType": "uint256[3]",
          "name": "input",
          "type": "uint256[3]"
        },
        {
          "internalType": "uint256[]",
          "name": "candidateIds",
          "type": "uint256[]"
        },
        {
          "internalType": "string",
          "name": "tokenURI",
          "type": "string"
        }
      ],
      "name": "castRankedVote",
      "outputs": [],
      "stateMutability": "nonpayable",
      "type": "function"
    },
    {
      "inputs": [],
      "name": "owner",
      "outputs": [
        {
          "internalType": "address",
          "name": "",
          "type": "address"
        }
      ],
      "stateMutability": "view",
      "type": "function"
    },
    {
      "inputs": [],
      "name": "renounceOwnership",
      "outputs": [],
      "stateMutability": "nonpayable",
      "type": "function"
    },
    {
      "inputs": [
        {
          "internalType": "address",
          "name": "newOwner",
          "type": "address"
        }
      ],
      "name": "transferOwnership",
      "outputs": [],
      "stateMutability": "nonpayable",
      "type": "function"
    },
    {
      "inputs": [
        {
          "internalType": "uint256",
          "name": "_voteId",
          "type": "uint256"
        },
        {
          "internalType": "string",
          "name": "reason",
          "type": "string"
        }
      ],
      "name": "triggerDispute",
      "outputs": [],
      "stateMutability": "nonpayable",
      "type": "function"
    },
    {
      "inputs": [],
      "name": "verifier",
      "outputs": [
        {
          "internalType": "contract Verifier",
          "name": "",
          "type": "address"
        }
      ],
      "stateMutability": "view",
      "type": "function"
    },
    {
      "inputs": [],
      "name": "voteId",
      "outputs": [
        {
          "internalType": "uint256",
          "name": "",
          "type": "uint256"
        }
      ],
      "stateMutability": "view",
      "type": "function"
    },
    {
      "inputs": [],
      "name": "voterNFT",
      "outputs": [
        {
          "internalType": "contract VoterNFT",
          "name": "",
          "type": "address"
        }
      ],
      "stateMutability": "view",
      "type": "function"
    },
    {
      "inputs": [
        {
          "internalType": "address",
          "name": "",
          "type": "address"
        }
      ],
      "name": "voters",
      "outputs": [
        {
          "internalType": "bool",
          "name": "hasVoted",
          "type": "bool"
        }
      ],
      "stateMutability": "view",
      "type": "function"
    },
    {
      "inputs": [
        {
          "internalType": "uint256",
          "name": "",
          "type": "uint256"
        },
        {
          "internalType": "address",
          "name": "",
          "type": "address"
        }
      ],
      "name": "votes",
      "outputs": [
        {
          "internalType": "uint256",
          "name": "",
          "type": "uint256"
        }
      ],
      "stateMutability": "view",
      "type": "function"
    }
  ],
  "bytecode": "0x608060405234801561001057600080fd5b506040516120aa3803806120aa83398181016040528101906100329190610265565b33600073ffffffffffffffffffffffffffffffffffffffff168173ffffffffffffffffffffffffffffffffffffffff16036100a55760006040517f1e4fbdf700000000000000000000000000000000000000000000000000000000815260040161009c91906102b4565b60405180910390fd5b6100b48161013e60201b60201c565b5081600160006101000a81548173ffffffffffffffffffffffffffffffffffffffff021916908373ffffffffffffffffffffffffffffffffffffffff16021790555080600260006101000a81548173ffffffffffffffffffffffffffffffffffffffff021916908373ffffffffffffffffffffffffffffffffffffffff16021790555050506102cf565b60008060009054906101000a900473ffffffffffffffffffffffffffffffffffffffff169050816000806101000a81548173ffffffffffffffffffffffffffffffffffffffff021916908373ffffffffffffffffffffffffffffffffffffffff1602179055508173ffffffffffffffffffffffffffffffffffffffff168173ffffffffffffffffffffffffffffffffffffffff167f8be0079c531659141344cd1fd0a4f28419497f9722a3daafe3b4186f6b6457e060405160405180910390a35050565b600080fd5b600073ffffffffffffffffffffffffffffffffffffffff82169050919050565b600061023282610207565b9050919050565b61024281610227565b811461024d57600080fd5b50565b60008151905061025f81610239565b92915050565b6000806040838503121561027c5761027b610202565b5b600061028a85828601610250565b925050602061029b85828601610250565b9150509250929050565b6102ae81610227565b82525050565b60006020820190506102c960008301846102a5565b92915050565b611dcc806102de6000396000f3fe608060405234801561001057600080fd5b50600436106100b45760003560e01c8063b320e97011610071578063b320e97014610167578063b8a594c514610185578063d23254b4146101a1578063f2fde38b146101d1578063f8dfeddf146101ed578063fbb3965114610209576100b4565b80632b7ac3f3146100b95780636d0efc87146100d7578063715018a6146100f357806372fd308a146100fd5780638da5cb5b14610119578063a3ec138d14610137575b600080fd5b6100c1610227565b6040516100ce9190610f6c565b60405180910390f35b6100f160048036038101906100ec919061132f565b61024d565b005b6100fb6104f1565b005b6101176004803603810190610112919061144d565b610505565b005b61012161054c565b60405161012e91906114ce565b60405180910390f35b610151600480360381019061014c9190611515565b610575565b60405161015e919061155d565b60405180910390f35b61016f6105a0565b60405161017c9190611599565b60405180910390f35b61019f600480360381019061019a919061160a565b6105c6565b005b6101bb60048036038101906101b691906116d9565b610815565b6040516101c89190611728565b60405180910390f35b6101eb60048036038101906101e69190611515565b61083a565b005b61020760048036038101906102029190611743565b6108c0565b005b610211610b64565b60405161021e9190611728565b60405180910390f35b600160009054906101000a900473ffffffffffffffffffffffffffffffffffffffff1681565b600360003373ffffffffffffffffffffffffffffffffffffffff1673ffffffffffffffffffffffffffffffffffffffff16815260200190815260200160002060000160009054906101000a900460ff16156102dd576040517f08c379a00000000000000000000000000000000000000000000000000000000081526004016102d49061184d565b60405180910390fd5b600160009054906101000a900473ffffffffffffffffffffffffffffffffffffffff1673ffffffffffffffffffffffffffffffffffffffff16630f9c5d49610326898989610b6a565b866040518363ffffffff1660e01b8152600401610344929190611a3d565b602060405180830381865afa158015610361573d6000803e3d6000fd5b505050506040513d601f19601f820116820180604052508101906103859190611a94565b6103c4576040517f08c379a00000000000000000000000000000000000000000000000000000000081526004016103bb90611b0d565b60405180910390fd5b6001600360003373ffffffffffffffffffffffffffffffffffffffff1673ffffffffffffffffffffffffffffffffffffffff16815260200190815260200160002060000160006101000a81548160ff021916908315150217905550816004600085815260200190815260200160002060003373ffffffffffffffffffffffffffffffffffffffff1673ffffffffffffffffffffffffffffffffffffffff168152602001908152602001600020819055506005600081548092919061048790611b5c565b91905055506005543373ffffffffffffffffffffffffffffffffffffffff167f251f168c3d37dca4f3922f4aa12852da0c3de8ef70710e0cf58eba85805168a260026040516104d69190611c1b565b60405180910390a36104e83382610c60565b50505050505050565b6104f9610d05565b6105036000610d8c565b565b61050d610d05565b827f140808f074380cd873e59f796fc0856562657e7d3a7e426f0cb4ae48bb01fb48838360405161053f929190611c63565b60405180910390a2505050565b60008060009054906101000a900473ffffffffffffffffffffffffffffffffffffffff16905090565b60036020528060005260406000206000915090508060000160009054906101000a900460ff16905081565b600260009054906101000a900473ffffffffffffffffffffffffffffffffffffffff1681565b600360003373ffffffffffffffffffffffffffffffffffffffff1673ffffffffffffffffffffffffffffffffffffffff16815260200190815260200160002060000160009054906101000a900460ff1615610656576040517f08c379a000000000000000000000000000000000000000000000000000000000815260040161064d9061184d565b60405180910390fd5b600160009054906101000a900473ffffffffffffffffffffffffffffffffffffffff1673ffffffffffffffffffffffffffffffffffffffff16630f9c5d4961069f898989610b6a565b866040518363ffffffff1660e01b81526004016106bd929190611a3d565b602060405180830381865afa1580156106da573d6000803e3d6000fd5b505050506040513d601f19601f820116820180604052508101906106fe9190611a94565b61073d576040517f08c379a000000000000000000000000000000000000000000000000000000000815260040161073490611b0d565b60405180910390fd5b6001600360003373ffffffffffffffffffffffffffffffffffffffff1673ffffffffffffffffffffffffffffffffffffffff16815260200190815260200160002060000160006101000a81548160ff021916908315150217905550600560008154809291906107ab90611b5c565b91905055506005543373ffffffffffffffffffffffffffffffffffffffff167f251f168c3d37dca4f3922f4aa12852da0c3de8ef70710e0cf58eba85805168a260016040516107fa9190611c1b565b60405180910390a361080c3382610c60565b50505050505050565b6004602052816000526040600020602052806000526040600020600091509150505481565b610842610d05565b600073ffffffffffffffffffffffffffffffffffffffff168173ffffffffffffffffffffffffffffffffffffffff16036108b45760006040517f1e4fbdf70000000000000000000000000000000000000000000000000000000081526004016108ab91906114ce565b60405180910390fd5b6108bd81610d8c565b50565b600360003373ffffffffffffffffffffffffffffffffffffffff1673ffffffffffffffffffffffffffffffffffffffff16815260200190815260200160002060000160009054906101000a900460ff1615610950576040517f08c379a00000000000000000000000000000000000000000000000000000000081526004016109479061184d565b60405180910390fd5b600160009054906101000a900473ffffffffffffffffffffffffffffffffffffffff1673ffffffffffffffffffffffffffffffffffffffff16630f9c5d49610999888888610b6a565b856040518363ffffffff1660e01b81526004016109b7929190611a3d565b602060405180830381865afa1580156109d4573d6000803e3d6000fd5b505050506040513d601f19601f820116820180604052508101906109f89190611a94565b610a37576040517f08c379a0000000000000000000000000000000000000000000000000000000008152600401610a2e90611b0d565b60405180910390fd5b6001600360003373ffffffffffffffffffffffffffffffffffffffff1673ffffffffffffffffffffffffffffffffffffffff16815260200190815260200160002060000160006101000a81548160ff02191690831515021790555060016004600084815260200190815260200160002060003373ffffffffffffffffffffffffffffffffffffffff1673ffffffffffffffffffffffffffffffffffffffff1681526020019081526020016000208190555060056000815480929190610afb90611b5c565b91905055506005543373ffffffffffffffffffffffffffffffffffffffff167f251f168c3d37dca4f3922f4aa12852da0c3de8ef70710e0cf58eba85805168a26000604051610b4a9190611c1b565b60405180910390a3610b5c3382610c60565b505050505050565b60055481565b610b72610e58565b604051806040016040528085600060028110610b9157610b90611c87565b5b6020020151815260200185600160028110610baf57610bae611c87565b5b60200201518152508160000181905250604051806040016040528084600060028110610bde57610bdd611c87565b5b6020020151815260200184600160028110610bfc57610bfb611c87565b5b60200201518152508160200181905250604051806040016040528083600060028110610c2b57610c2a611c87565b5b6020020151815260200183600160028110610c4957610c48611c87565b5b602002015181525081604001819052509392505050565b600260009054906101000a900473ffffffffffffffffffffffffffffffffffffffff1673ffffffffffffffffffffffffffffffffffffffff16630712249f83836040518363ffffffff1660e01b8152600401610cbd929190611d24565b6020604051808303816000875af1158015610cdc573d6000803e3d6000fd5b505050506040513d601f19601f82011682018060405250810190610d009190611d69565b505050565b610d0d610e50565b73ffffffffffffffffffffffffffffffffffffffff16610d2b61054c565b73ffffffffffffffffffffffffffffffffffffffff1614610d8a57610d4e610e50565b6040517f118cdaa7000000000000000000000000000000000000000000000000000000008152600401610d8191906114ce565b60405180910390fd5b565b60008060009054906101000a900473ffffffffffffffffffffffffffffffffffffffff169050816000806101000a81548173ffffffffffffffffffffffffffffffffffffffff021916908373ffffffffffffffffffffffffffffffffffffffff1602179055508173ffffffffffffffffffffffffffffffffffffffff168173ffffffffffffffffffffffffffffffffffffffff167f8be0079c531659141344cd1fd0a4f28419497f9722a3daafe3b4186f6b6457e060405160405180910390a35050565b600033905090565b6040518060600160405280610e6b610e8b565b8152602001610e78610ea5565b8152602001610e85610e8b565b81525090565b604051806040016040528060008152602001600081525090565b6040518060400160405280610eb8610ecb565b8152602001610ec5610ecb565b81525090565b6040518060400160405280600290602082028036833780820191505090505090565b600073ffffffffffffffffffffffffffffffffffffffff82169050919050565b6000819050919050565b6000610f32610f2d610f2884610eed565b610f0d565b610eed565b9050919050565b6000610f4482610f17565b9050919050565b6000610f5682610f39565b9050919050565b610f6681610f4b565b82525050565b6000602082019050610f816000830184610f5d565b92915050565b6000604051905090565b600080fd5b600080fd5b600080fd5b6000601f19601f8301169050919050565b7f4e487b7100000000000000000000000000000000000000000000000000000000600052604160045260246000fd5b610fe982610fa0565b810181811067ffffffffffffffff8211171561100857611007610fb1565b5b80604052505050565b600061101b610f87565b90506110278282610fe0565b919050565b600067ffffffffffffffff82111561104757611046610fb1565b5b602082029050919050565b600080fd5b6000819050919050565b61106a81611057565b811461107557600080fd5b50565b60008135905061108781611061565b92915050565b60006110a061109b8461102c565b611011565b905080602084028301858111156110ba576110b9611052565b5b835b818110156110e357806110cf8882611078565b8452602084019350506020810190506110bc565b5050509392505050565b600082601f83011261110257611101610f9b565b5b600261110f84828561108d565b91505092915050565b600067ffffffffffffffff82111561113357611132610fb1565b5b602082029050919050565b600061115161114c84611118565b611011565b9050806040840283018581111561116b5761116a611052565b5b835b81811015611194578061118088826110ed565b84526020840193505060408101905061116d565b5050509392505050565b600082601f8301126111b3576111b2610f9b565b5b60026111c084828561113e565b91505092915050565b600067ffffffffffffffff8211156111e4576111e3610fb1565b5b602082029050919050565b60006112026111fd846111c9565b611011565b9050806020840283018581111561121c5761121b611052565b5b835b8181101561124557806112318882611078565b84526020840193505060208101905061121e565b5050509392505050565b600082601f83011261126457611263610f9b565b5b60036112718482856111ef565b91505092915050565b600080fd5b600067ffffffffffffffff82111561129a57611299610fb1565b5b6112a382610fa0565b9050602081019050919050565b82818337600083830152505050565b60006112d26112cd8461127f565b611011565b9050828152602081018484840111156112ee576112ed61127a565b5b6112f98482856112b0565b509392505050565b600082601f83011261131657611315610f9b565b5b81356113268482602086016112bf565b91505092915050565b60008060008060008060006101c0888a03121561134f5761134e610f91565b5b600061135d8a828b016110ed565b975050604061136e8a828b0161119e565b96505060c061137f8a828b016110ed565b9550506101006113918a828b0161124f565b9450506101606113a38a828b01611078565b9350506101806113b58a828b01611078565b9250506101a088013567ffffffffffffffff8111156113d7576113d6610f96565b5b6113e38a828b01611301565b91505092959891949750929550565b600080fd5b60008083601f84011261140d5761140c610f9b565b5b8235905067ffffffffffffffff81111561142a576114296113f2565b5b60208301915083600182028301111561144657611445611052565b5b9250929050565b60008060006040848603121561146657611465610f91565b5b600061147486828701611078565b935050602084013567ffffffffffffffff81111561149557611494610f96565b5b6114a1868287016113f7565b92509250509250925092565b60006114b882610eed565b9050919050565b6114c8816114ad565b82525050565b60006020820190506114e360008301846114bf565b92915050565b6114f2816114ad565b81146114fd57600080fd5b50565b60008135905061150f816114e9565b92915050565b60006020828403121561152b5761152a610f91565b5b600061153984828501611500565b91505092915050565b60008115159050919050565b61155781611542565b82525050565b6000602082019050611572600083018461154e565b92915050565b600061158382610f39565b9050919050565b61159381611578565b82525050565b60006020820190506115ae600083018461158a565b92915050565b60008083601f8401126115ca576115c9610f9b565b5b8235905067ffffffffffffffff8111156115e7576115e66113f2565b5b60208301915083602082028301111561160357611602611052565b5b9250929050565b60008060008060008060006101a0888a03121561162a57611629610f91565b5b60006116388a828b016110ed565b97505060406116498a828b0161119e565b96505060c061165a8a828b016110ed565b95505061010061166c8a828b0161124f565b94505061016088013567ffffffffffffffff81111561168e5761168d610f96565b5b61169a8a828b016115b4565b935093505061018088013567ffffffffffffffff8111156116be576116bd610f96565b5b6116ca8a828b01611301565b91505092959891949750929550565b600080604083850312156116f0576116ef610f91565b5b60006116fe85828601611078565b925050602061170f85828601611500565b9150509250929050565b61172281611057565b82525050565b600060208201905061173d6000830184611719565b92915050565b6000806000806000806101a0878903121561176157611760610f91565b5b600061176f89828a016110ed565b965050604061178089828a0161119e565b95505060c061179189828a016110ed565b9450506101006117a389828a0161124f565b9350506101606117b589828a01611078565b92505061018087013567ffffffffffffffff8111156117d7576117d6610f96565b5b6117e389828a01611301565b9150509295509295509295565b600082825260208201905092915050565b7f566f7465722068617320616c726561647920766f746564000000000000000000600082015250565b60006118376017836117f0565b915061184282611801565b602082019050919050565b600060208201905081810360008301526118668161182a565b9050919050565b61187681611057565b82525050565b604082016000820151611892600085018261186d565b5060208201516118a5602085018261186d565b50505050565b600060029050919050565b600081905092915050565b6000819050919050565b60006118d7838361186d565b60208301905092915050565b6000602082019050919050565b6118f9816118ab565b61190381846118b6565b925061190e826118c1565b8060005b8381101561193f57815161192687826118cb565b9650611931836118e3565b925050600181019050611912565b505050505050565b60808201600082015161195d60008501826118f0565b50602082015161197060408501826118f0565b50505050565b6101008201600082015161198d600085018261187c565b5060208201516119a06040850182611947565b5060408201516119b360c085018261187c565b50505050565b600060039050919050565b600081905092915050565b6000819050919050565b6000602082019050919050565b6119ef816119b9565b6119f981846119c4565b9250611a04826119cf565b8060005b83811015611a35578151611a1c87826118cb565b9650611a27836119d9565b925050600181019050611a08565b505050505050565b600061016082019050611a536000830185611976565b611a616101008301846119e6565b9392505050565b611a7181611542565b8114611a7c57600080fd5b50565b600081519050611a8e81611a68565b92915050565b600060208284031215611aaa57611aa9610f91565b5b6000611ab884828501611a7f565b91505092915050565b7f496e76616c6964205a4b2050726f6f6600000000000000000000000000000000600082015250565b6000611af76010836117f0565b9150611b0282611ac1565b602082019050919050565b60006020820190508181036000830152611b2681611aea565b9050919050565b7f4e487b7100000000000000000000000000000000000000000000000000000000600052601160045260246000fd5b6000611b6782611057565b91507fffffffffffffffffffffffffffffffffffffffffffffffffffffffffffffffff8203611b9957611b98611b2d565b5b600182019050919050565b7f4e487b7100000000000000000000000000000000000000000000000000000000600052602160045260246000fd5b60038110611be457611be3611ba4565b5b50565b6000819050611bf582611bd3565b919050565b6000611c0582611be7565b9050919050565b611c1581611bfa565b82525050565b6000602082019050611c306000830184611c0c565b92915050565b6000611c4283856117f0565b9350611c4f8385846112b0565b611c5883610fa0565b840190509392505050565b60006020820190508181036000830152611c7e818486611c36565b90509392505050565b7f4e487b7100000000000000000000000000000000000000000000000000000000600052603260045260246000fd5b600081519050919050565b60005b83811015611cdf578082015181840152602081019050611cc4565b60008484015250505050565b6000611cf682611cb6565b611d0081856117f0565b9350611d10818560208601611cc1565b611d1981610fa0565b840191505092915050565b6000604082019050611d3960008301856114bf565b8181036020830152611d4b8184611ceb565b90509392505050565b600081519050611d6381611061565b92915050565b600060208284031215611d7f57611d7e610f91565b5b6000611d8d84828501611d54565b9150509291505056fea26469706673582212207fcd12f3b12249d1e4db0c843c4ecf935e206b07c015774cf88bc40f5027e53c64736f6c634300081c0033",
  "linkReferences": {},
  "deployedLinkReferences": {}
}