{
  "_format": "hh-sol-artifact-1",
  "contractName": "Verifier",
  "sourceName": "contracts/Verifier.sol",
  "abi": [
    {
      "inputs": [
        {
          "components": [
            {
              "components": [
                {
                  "internalType": "uint256",
                  "name": "X",
                  "type": "uint256"
                },
                {
                  "internalType": "uint256",
                  "name": "Y",
                  "type": "uint256"
                }
              ],
              "internalType": "struct Pairing.G1Point",
              "name": "a",
              "type": "tuple"
            },
            {
              "components": [
                {
                  "internalType": "uint256[2]",
                  "name": "X",
                  "type": "uint256[2]"
                },
                {
                  "internalType": "uint256[2]",
                  "name": "Y",
                  "type": "uint256[2]"
                }
              ],
              "internalType": "struct Pairing.G2Point",
              "name": "b",
              "type": "tuple"
            },
            {
              "components": [
                {
                  "internalType": "uint256",
                  "name": "X",
                  "type": "uint256"
                },
                {
                  "internalType": "uint256",
                  "name": "Y",
                  "type": "uint256"
                }
              ],
              "internalType": "struct Pairing.G1Point",
              "name": "c",
              "type": "tuple"
            }
          ],
          "internalType": "struct Verifier.Proof",
          "name": "proof",
          "type": "tuple"
        },
        {
          "internalType": "uint256[3]",
          "name": "input",
          "type": "uint256[3]"
        }
      ],
      "name": "verifyTx",
      "outputs": [
        {
          "internalType": "bool",
          "name": "r",
          "type": "bool"
        }
      ],
      "stateMutability": "view",
      "type": "function"
    }
  ],
  "bytecode": "0x6080604052348015600f57600080fd5b506115448061001f6000396000f3fe608060405234801561001057600080fd5b506004361061002b5760003560e01c80630f9c5d4914610030575b600080fd5b61004a6004803603810190610045919061132e565b610060565b604051610057919061138b565b60405180910390f35b600080600367ffffffffffffffff81111561007e5761007d61100c565b5b6040519080825280602002602001820160405280156100ac5781602001602082028036833780820191505090505b50905060005b60038110156100ff578381600381106100ce576100cd6113a6565b5b60200201518282815181106100e6576100e56113a6565b5b60200260200101818152505080806001019150506100b2565b50600061010c8286610127565b0361011b576001915050610121565b60009150505b92915050565b6000807f30644e72e131a029b85045b68181585d2833e84879b9709143e1f593f0000001905060006101576102b8565b90508060800151516001865161016d9190611404565b1461017757600080fd5b60006040518060400160405280600081526020016000815250905060005b865181101561022a57838782815181106101b2576101b16113a6565b5b6020026020010151106101c457600080fd5b61021b8261021685608001516001856101dd9190611404565b815181106101ee576101ed6113a6565b5b60200260200101518a8581518110610209576102086113a6565b5b60200260200101516107ac565b61084e565b91508080600101915050610195565b50610254818360800151600081518110610247576102466113a6565b5b602002602001015161084e565b905061029a8560000151866020015161026c84610916565b856040015161027e8a60400151610916565b87606001516102908960000151610916565b89602001516109bb565b6102aa57600193505050506102b2565b600093505050505b92915050565b6102c0610ed8565b60405180604001604052807f14d63971760d93b51c5efaf52c392f1e867d9c49bcc6100e5d7d9102225d16e281526020017f17a4ec07359d90b6e4e01587018c6957f613421b5e99cd5983b49d9b7f72b9dd8152508160000181905250604051806040016040528060405180604001604052807f09bc71c1283fe538e73ec5fd2eed7f746612d4257b9b05fc0e587ade61afda7b81526020017f1ca738b647a9b247d4cd64d95105a5279a20604200708872abf3685a652f8db5815250815260200160405180604001604052807f0c720b43eaec063343baf982a206a3eadd7a1cd63c60b49c13540b73e3e2995881526020017f1cac92fc27f1a7b8841b8a0701efc362ce268a3373dfadd21f4f614c7412898d8152508152508160200181905250604051806040016040528060405180604001604052807f117683402ea4b06afb91911abe23d7686b997ee35fce0f4e2d4f0d1a66989b2281526020017f0228611efca60de7ce7db17837fe35ed8d90a7b31c123c813b1b766bffcdf0f5815250815260200160405180604001604052807f15aff3b564422cabc1b7cfb378ada40dd0e0bdea535fba9459ee04f29b5c907681526020017f0821cb4e50373e85c9f33104a30b7b7b3bbcb43c1ada404024720032101fcb678152508152508160400181905250604051806040016040528060405180604001604052807f1893828524a5fd0c6c94fe46d817288dc786020deed682260d659a54d8e041ce81526020017f234c113582b4b397c1d1457387874f4b6a8b0931bf05adfee5cdedb9ce6df6e1815250815260200160405180604001604052807f2c095f63371fbc3ed3f0e288eb6a1ec66d1a7611a57cdf09a4d74443c3d063bc81526020017f19e872d03b2806d9a0a5bff7aab7b8ddd27fae36dc23038a016f6d867e1f8ce68152508152508160600181905250600467ffffffffffffffff8111156105875761058661100c565b5b6040519080825280602002602001820160405280156105c057816020015b6105ad610f1f565b8152602001906001900390816105a55790505b50816080018190525060405180604001604052807f0c632b2914205dd94dd4da4101f372a2bab0970c2dcce9946886d2389340217081526020017f2715df20a3973477a438f4058cc95c388ec5c7f3fdad26b70e7acf25eb8273cd8152508160800151600081518110610636576106356113a6565b5b602002602001018190525060405180604001604052807f25644199ebf5b0dab6b71fbe182e0af0b83ea0dc866f5e58d461a094834eb3c681526020017f2c771a1f839718db31b144d9a1257a8a7080038ed9bf46f3f81b45849f13f2f281525081608001516001815181106106ae576106ad6113a6565b5b602002602001018190525060405180604001604052807f2a6afec25f17dc33c2bf834218a836fb3f83ffd9f14b8273da253dddc427d07681526020017f2961ed6482b2449e873f485d3d2cbc565fbab17a68649ece763b0367d6b0fc4a8152508160800151600281518110610726576107256113a6565b5b602002602001018190525060405180604001604052807f2f2e5b7b293ec0eb43daa0d2f0f837c5f1ed538d5bab9dc8a202e7f0885d261e81526020017f1c178241a21ebc6b16aff6951975dafcc56f9f2f898c863d62206e61c1578dc6815250816080015160038151811061079e5761079d6113a6565b5b602002602001018190525090565b6107b4610f1f565b6107bc610f39565b8360000151816000600381106107d5576107d46113a6565b5b6020020181815250508360200151816001600381106107f7576107f66113a6565b5b6020020181815250508281600260038110610815576108146113a6565b5b602002018181525050600060608360808460076107d05a03fa9050806000810361083b57fe5b508061084657600080fd5b505092915050565b610856610f1f565b61085e610f5b565b836000015181600060048110610877576108766113a6565b5b602002018181525050836020015181600160048110610899576108986113a6565b5b6020020181815250508260000151816002600481106108bb576108ba6113a6565b5b6020020181815250508260200151816003600481106108dd576108dc6113a6565b5b602002018181525050600060608360c08460066107d05a03fa9050806000810361090357fe5b508061090e57600080fd5b505092915050565b61091e610f1f565b60007f30644e72e131a029b85045b68181585d97816a916871ca8d3c208c16d87cfd4790506000836000015114801561095b575060008360200151145b1561097f5760405180604001604052806000815260200160008152509150506109b6565b6040518060400160405280846000015181526020018285602001516109a49190611467565b836109af9190611498565b8152509150505b919050565b600080600467ffffffffffffffff8111156109d9576109d861100c565b5b604051908082528060200260200182016040528015610a1257816020015b6109ff610f1f565b8152602001906001900390816109f75790505b5090506000600467ffffffffffffffff811115610a3257610a3161100c565b5b604051908082528060200260200182016040528015610a6b57816020015b610a58610f7d565b815260200190600190039081610a505790505b5090508a82600081518110610a8357610a826113a6565b5b60200260200101819052508882600181518110610aa357610aa26113a6565b5b60200260200101819052508682600281518110610ac357610ac26113a6565b5b60200260200101819052508482600381518110610ae357610ae26113a6565b5b60200260200101819052508981600081518110610b0357610b026113a6565b5b60200260200101819052508781600181518110610b2357610b226113a6565b5b60200260200101819052508581600281518110610b4357610b426113a6565b5b60200260200101819052508381600381518110610b6357610b626113a6565b5b6020026020010181905250610b788282610b88565b9250505098975050505050505050565b60008151835114610b9857600080fd5b6000835190506000600682610bad91906114cc565b905060008167ffffffffffffffff811115610bcb57610bca61100c565b5b604051908082528060200260200182016040528015610bf95781602001602082028036833780820191505090505b50905060005b83811015610e7857868181518110610c1a57610c196113a6565b5b602002602001015160000151826000600684610c3691906114cc565b610c409190611404565b81518110610c5157610c506113a6565b5b602002602001018181525050868181518110610c7057610c6f6113a6565b5b602002602001015160200151826001600684610c8c91906114cc565b610c969190611404565b81518110610ca757610ca66113a6565b5b602002602001018181525050858181518110610cc657610cc56113a6565b5b602002602001015160000151600160028110610ce557610ce46113a6565b5b6020020151826002600684610cfa91906114cc565b610d049190611404565b81518110610d1557610d146113a6565b5b602002602001018181525050858181518110610d3457610d336113a6565b5b602002602001015160000151600060028110610d5357610d526113a6565b5b6020020151826003600684610d6891906114cc565b610d729190611404565b81518110610d8357610d826113a6565b5b602002602001018181525050858181518110610da257610da16113a6565b5b602002602001015160200151600160028110610dc157610dc06113a6565b5b6020020151826004600684610dd691906114cc565b610de09190611404565b81518110610df157610df06113a6565b5b602002602001018181525050858181518110610e1057610e0f6113a6565b5b602002602001015160200151600060028110610e2f57610e2e6113a6565b5b6020020151826005600684610e4491906114cc565b610e4e9190611404565b81518110610e5f57610e5e6113a6565b5b6020026020010181815250508080600101915050610bff565b50610e81610fa3565b6000602082602086026020860160086107d05a03fa90508060008103610ea357fe5b5080610eae57600080fd5b600082600060018110610ec457610ec36113a6565b5b602002015114159550505050505092915050565b6040518060a00160405280610eeb610f1f565b8152602001610ef8610f7d565b8152602001610f05610f7d565b8152602001610f12610f7d565b8152602001606081525090565b604051806040016040528060008152602001600081525090565b6040518060600160405280600390602082028036833780820191505090505090565b6040518060800160405280600490602082028036833780820191505090505090565b6040518060400160405280610f90610fc5565b8152602001610f9d610fc5565b81525090565b6040518060200160405280600190602082028036833780820191505090505090565b6040518060400160405280600290602082028036833780820191505090505090565b6000604051905090565b600080fd5b600080fd5b6000601f19601f8301169050919050565b7f4e487b7100000000000000000000000000000000000000000000000000000000600052604160045260246000fd5b61104482610ffb565b810181811067ffffffffffffffff821117156110635761106261100c565b5b80604052505050565b6000611076610fe7565b9050611082828261103b565b919050565b6000819050919050565b61109a81611087565b81146110a557600080fd5b50565b6000813590506110b781611091565b92915050565b6000604082840312156110d3576110d2610ff6565b5b6110dd604061106c565b905060006110ed848285016110a8565b6000830152506020611101848285016110a8565b60208301525092915050565b600080fd5b600067ffffffffffffffff82111561112d5761112c61100c565b5b602082029050919050565b600080fd5b600061115061114b84611112565b61106c565b9050806020840283018581111561116a57611169611138565b5b835b81811015611193578061117f88826110a8565b84526020840193505060208101905061116c565b5050509392505050565b600082601f8301126111b2576111b161110d565b5b60026111bf84828561113d565b91505092915050565b6000608082840312156111de576111dd610ff6565b5b6111e8604061106c565b905060006111f88482850161119d565b600083015250604061120c8482850161119d565b60208301525092915050565b6000610100828403121561122f5761122e610ff6565b5b611239606061106c565b90506000611249848285016110bd565b600083015250604061125d848285016111c8565b60208301525060c0611271848285016110bd565b60408301525092915050565b600067ffffffffffffffff8211156112985761129761100c565b5b602082029050919050565b60006112b66112b18461127d565b61106c565b905080602084028301858111156112d0576112cf611138565b5b835b818110156112f957806112e588826110a8565b8452602084019350506020810190506112d2565b5050509392505050565b600082601f8301126113185761131761110d565b5b60036113258482856112a3565b91505092915050565b600080610160838503121561134657611345610ff1565b5b600061135485828601611218565b92505061010061136685828601611303565b9150509250929050565b60008115159050919050565b61138581611370565b82525050565b60006020820190506113a0600083018461137c565b92915050565b7f4e487b7100000000000000000000000000000000000000000000000000000000600052603260045260246000fd5b7f4e487b7100000000000000000000000000000000000000000000000000000000600052601160045260246000fd5b600061140f82611087565b915061141a83611087565b9250828201905080821115611432576114316113d5565b5b92915050565b7f4e487b7100000000000000000000000000000000000000000000000000000000600052601260045260246000fd5b600061147282611087565b915061147d83611087565b92508261148d5761148c611438565b5b828206905092915050565b60006114a382611087565b91506114ae83611087565b92508282039050818111156114c6576114c56113d5565b5b92915050565b60006114d782611087565b91506114e283611087565b92508282026114f081611087565b91508282048414831517611507576115066113d5565b5b509291505056fea264697066735822122011b3550218fad59b852bd49ea34d85d8bcdefc2de181b2eca6cd68342d5ec1d564736f6c634300081c0033",
  "linkReferences": {},
  "deployedLinkReferences": {}
}